:100000000C9434000C9451000C9451000C94510049
:100010000C9451000C9451000C9451000C9451001C
:100020000C9451000C9451000C9451000C9451000C
:100030000C9451000C9451000C9451000C945100FC
:100040000C94B0000C9451000C9432010C94FA0002
:100050000C9451000C9451000C9451000C945100DC
:100060000C9451000C94510011241FBECFEFD8E026
:10007000DEBFCDBF11E0A0E0B1E0E6E5F4E002C0F4
:1000800005900D92AA30B107D9F721E0AAE0B1E0BE
:1000900001C01D92A332B207E1F70E9471010C94D6
:1000A00029020C9400003FB7F89480911F019091B1
:1000B0002001A0912101B091220126B5A89B05C085
:1000C0002F3F19F00196A11DB11D3FBFBA2FA92FD7
:1000D000982F8827BC01CD01620F711D811D911DD4
:1000E00042E0660F771F881F991F4A95D1F7089540
:1000F000209105019091070130910601931B9223F5
:1001000081F43091C00035FF0CC09FB7F894809304
:10011000C6008091C00080648093C0009FBF81E0D2
:1001200008952F5F2917D1F09FB7F894E091070148
:100130002091080130910901E20FF32FF11D808316
:10014000809107018F5F2091050182238093070131
:100150008091C10080628093C100E0CF80E008956B
:100160001F920F920FB60F9211242F933F938F93EC
:100170009F93AF93BF9380911B0190911C01A0911D
:100180001D01B0911E0130911A0123E0230F2D377C
:1001900058F50196A11DB11D20931A0180931B01F2
:1001A00090931C01A0931D01B0931E0180911F012B
:1001B00090912001A0912101B09122010196A11DF1
:1001C000B11D80931F0190932001A0932101B09352
:1001D0002201BF91AF919F918F913F912F910F90ED
:1001E0000FBE0F901F90189526E8230F0296A11DB1
:1001F000B11DD2CF1F920F920FB60F9211242F93E1
:100200003F938F939F93EF93FF93809106012091EB
:10021000050190910701981B922369F0E091080174
:10022000F0910901E80FF11D30818F5F82238093E7
:1002300006013093C6008091C00080648093C000A6
:10024000913029F48091C1008F7D8093C100FF918E
:10025000EF919F918F913F912F910F900FBE0F9033
:100260001F9018951F920F920FB60F9211242F9383
:100270003F934F938F939F93EF93FF938091C00091
:100280008C7171F08091C600FF91EF919F918F91D9
:100290004F913F912F910F900FBE0F901F90189587
:1002A0002091C60090910001E091020131E0390FE8
:1002B000809101014E2F481B842F8923381721F389
:1002C0008091030190910401E80FF92FF11D208323
:1002D000809102018F5F9091000189238093020138
:1002E000D3CF789484B5826084BD84B5816084BDA9
:1002F00085B5826085BD85B5816085BD80916E00C4
:10030000816080936E0010928100809181008260F4
:100310008093810080918100816080938100809131
:1003200080008160809380008091B1008460809320
:10033000B1008091B00081608093B00080917A001C
:10034000846080937A0080917A00826080937A0042
:1003500080917A00816080937A0080917A00806831
:1003600080937A001092C1001092C10082E08093C5
:10037000C0001092C5009FEC9093C4008093C2000F
:100380008091C10080618093C1008091C10088602C
:100390008093C1008091C10080688093C1008091EA
:1003A000C1008F7D8093C100C0E0D0E020910501A5
:1003B00081E3820F9091070130910601931B9223F4
:1003C000891B0E94780081E40E94780082E40E94E8
:1003D000780083E40E94780084E40E94780085E439
:1003E0000E94780086E40E94780087E40E947800EA
:1003F00088E40E9478008DE00E9478000E945300FB
:100400004B015C0188EEC82E83E0D82EE12CF12C44
:100410000E945300681979098A099B09683E734054
:1004200081059105A8F321E0C21AD108E108F1087D
:1004300088EE880E83E0981EA11CB11CC114D10463
:10044000E104F10429F7209709F4B0CF0E940000DD
:06045000ADCFF894FFCFD0
:0A0456000700000A01070000120170
:00000001FF
