:100000000C9435000C945D000C945D000C945D0024
:100010000C945D000C945D000C945D000C945D00EC
:100020000C945D000C945D000C945D000C945D00DC
:100030000C945D000C945D000C945D000C945D00CC
:100040000C9421020C945D000C94EF010C94C901F6
:100050000C945D000C945D000C945D000C945D00AC
:100060000C945D000C945D00060311241FBECFEFBD
:10007000D8E0DEBFCDBF11E0A0E0B1E0E6E7F6E0FA
:1000800002C005900D92A831B107D9F721E0A8E18F
:10009000B1E001C01D92A63CB207E1F710E0C5E354
:1000A000D0E004C02197FE010E943303C433D1077E
:1000B000C9F70E946B020C9439030C940000AF92B4
:1000C000BF92CF92DF92EF92FF920F931F93CF9345
:1000D000DF936C017B018B01040F151FEB015E01A7
:1000E000AE18BF08C017D10759F06991D601ED913C
:1000F000FC910190F081E02DC6010995892B79F7DB
:10010000C501DF91CF911F910F91FF90EF90DF908C
:10011000CF90BF90AF900895FC01538D448D252F53
:1001200030E0842F90E0821B930B541710F0CF9691
:10013000089501970895FC01918D828D981761F0C3
:10014000A28DAE0FBF2FB11D5D968C91928D9F5FDA
:100150009F73928F90E008958FEF9FEF0895FC01B9
:10016000918D828D981731F0828DE80FF11D858D6C
:1001700090E008958FEF9FEF0895FC01918D228DFF
:10018000892F90E0805C9F4F821B91098F73992784
:10019000089589E291E00E94BD0021E0892B09F4D5
:1001A00020E0822F089580E090E0892B29F00E94C2
:1001B000C90081110C9400000895FC01A48DA80FC2
:1001C000B92FB11DA35ABF4F2C91848D90E0019699
:1001D0008F739927848FA689B7892C93A089B189B9
:1001E0008C91837080648C93938D848D981306C05A
:1001F0000288F389E02D80818F7D80830895EF92BE
:10020000FF920F931F93CF93DF93EC0181E0888FD0
:100210009B8D8C8D98131AC0E889F989808185FFA0
:1002200015C09FB7F894EE89FF896083E889F98942
:1002300080818370806480839FBF81E090E0DF9144
:10024000CF911F910F91FF90EF900895F62E0B8D97
:1002500010E00F5F1F4F0F731127E02E8C8D8E1152
:100260000CC00FB607FCFACFE889F989808185FFB9
:10027000F5CFCE010E94DD00F1CFEB8DEC0FFD2F0D
:10028000F11DE35AFF4FF0829FB7F8940B8FEA8974
:10029000FB8980818062CFCFCF93DF93EC01888D83
:1002A0008823B9F0AA89BB89E889F9898C9185FDF1
:1002B00003C0808186FD0DC00FB607FCF7CF8C917F
:1002C00085FFF2CF808185FFEDCFCE010E94DD005A
:1002D000E9CFDF91CF9108953FB7F8948091250140
:1002E00090912601A0912701B091280126B5A89BE5
:1002F00005C02F3F19F00196A11DB11D3FBFBA2FB8
:10030000A92F982F8827BC01CD01620F711D811D77
:10031000911D42E0660F771F881F991F4A95D1F7FC
:100320000895209100019091020130910101931BE9
:10033000922381F43091C00035FF0CC09FB7F89430
:100340008093C6008091C00080648093C0009FBFEE
:1003500081E008952F5F2917D1F09FB7F894E091BD
:1003600002012091030130910401E20FF32FF11DEE
:100370008083809102018F5F20910001822380930E
:1003800002018091C10080628093C100E0CF80E0D3
:1003900008951F920F920FB60F9211242F933F933F
:1003A0004F935F936F937F938F939F93AF93BF937D
:1003B000EF93FF9389E291E00E94DD00FF91EF91BE
:1003C000BF91AF919F918F917F916F915F914F916D
:1003D0003F912F910F900FBE0F901F9018951F9275
:1003E0000F920FB60F9211242F938F939F93EF9339
:1003F000FF93E0913901F0913A018081E0913F0152
:10040000F091400182FD1BC09081809142018F5F7D
:100410008F7320914301821741F0E0914201F0E097
:10042000E75DFE4F958F80934201FF91EF919F9181
:100430008F912F910F900FBE0F901F901895808174
:10044000F4CF1F920F920FB60F9211242F933F9368
:100450008F939F93AF93BF9380912101909122013D
:10046000A0912301B09124013091200123E0230FBA
:100470002D3758F50196A11DB11D209320018093C1
:10048000210190932201A0932301B0932401809134
:10049000250190912601A0912701B0912801019694
:1004A000A11DB11D8093250190932601A0932701E2
:1004B000B0932801BF91AF919F918F913F912F9160
:1004C0000F900FBE0F901F90189526E8230F0296ED
:1004D000A11DB11DD2CF789484B5826084BD84B54E
:1004E000816084BD85B5826085BD85B5816085BD2F
:1004F00080916E00816080936E00109281008091E7
:10050000810082608093810080918100816080936E
:100510008100809180008160809380008091B10093
:1005200084608093B1008091B00081608093B000BE
:1005300080917A00846080937A0080917A00826052
:1005400080937A0080917A00816080937A00809114
:100550007A00806880937A001092C1001092C100E6
:1005600082E08093C0001092C5009FEC9093C4007D
:100570008093C2008091C10080618093C10080910E
:10058000C10088608093C1008091C1008068809321
:10059000C1008091C1008F7D8093C100C0E0D0E098
:1005A00081E40E949101811128C00E946C014B01DD
:1005B0005C0188EEC82E83E0D82EE12CF12C0E943D
:1005C0006C01681979098A099B09683E73408105A5
:1005D0009105A8F321E0C21AD108E108F10888EEDC
:1005E000880E83E0981EA11CB11CC114D104E10443
:1005F000F10429F782E40E949101209789F20E9478
:10060000C900882369F20E940000CACFE9E2F1E044
:100610001382128288EE93E0A0E0B0E08483958399
:10062000A683B78389E091E09183808385EC90E095
:100630009587848784EC90E09787868780EC90E0AC
:10064000918B808B81EC90E0938B828B82EC90E09D
:10065000958B848B86EC90E0978B868B118E128E17
:10066000138E148E0895EE0FFF1F0590F491E02D68
:060670000994F894FFCF8D
:10067600070000180100000000FF005F008C004C1E
:0806860001BD009B00AF000064
:00000001FF
