:100000000C9435000C945D000C945D000C945D0024
:100010000C945D000C945D000C945D000C945D00EC
:100020000C945D000C945D000C945D000C945D00DC
:100030000C945D000C945D000C945D000C945D00CC
:100040000C94F4020C945D000C94C2020C949C027B
:100050000C945D000C945D000C945D000C945D00AC
:100060000C945D000C945D008A0411241FBECFEF38
:10007000D8E0DEBFCDBF12E0A0E0B1E0ECEDFBE0E8
:1000800002C005900D92A037B107D9F723E0A0E791
:10009000B2E001C01D92AE31B207E1F710E0C5E356
:1000A000D0E004C02197FE010E94E605C433D107C9
:1000B000C9F70E943E030C94EC050C940000AF922B
:1000C000BF92CF92DF92EF92FF920F931F93CF9345
:1000D000DF936C017B018B01040F151FEB015E01A7
:1000E000AE18BF08C017D10759F06991D601ED913C
:1000F000FC910190F081E02DC6010995892B79F7DB
:10010000C501DF91CF911F910F91FF90EF90DF908C
:10011000CF90BF90AF900895FC01538D448D252F53
:1001200030E0842F90E0821B930B541710F0CF9691
:10013000089501970895FC01918D828D981761F0C3
:10014000A28DAE0FBF2FB11D5D968C91928D9F5FDA
:100150009F73928F90E008958FEF9FEF0895FC01B9
:10016000918D828D981731F0828DE80FF11D858D6C
:1001700090E008958FEF9FEF0895FC01918D228DFF
:10018000892F90E0805C9F4F821B91098F73992784
:10019000089581E892E00E94BD0021E0892B09F4D6
:1001A00020E0822F089580E090E0892B29F00E94C2
:1001B000C90081110C9400000895FC01A48DA80FC2
:1001C000B92FB11DA35ABF4F2C91848D90E0019699
:1001D0008F739927848FA689B7892C93A089B189B9
:1001E0008C91837080648C93938D848D981306C05A
:1001F0000288F389E02D80818F7D80830895EF92BE
:10020000FF920F931F93CF93DF93EC0181E0888FD0
:100210009B8D8C8D98131AC0E889F989808185FFA0
:1002200015C09FB7F894EE89FF896083E889F98942
:1002300080818370806480839FBF81E090E0DF9144
:10024000CF911F910F91FF90EF900895F62E0B8D97
:1002500010E00F5F1F4F0F731127E02E8C8D8E1152
:100260000CC00FB607FCFACFE889F989808185FFB9
:10027000F5CFCE010E94DD00F1CFEB8DEC0FFD2F0D
:10028000F11DE35AFF4FF0829FB7F8940B8FEA8974
:10029000FB8980818062CFCFCF93DF93EC01888D83
:1002A0008823B9F0AA89BB89E889F9898C9185FDF1
:1002B00003C0808186FD0DC00FB607FCF7CF8C917F
:1002C00085FFF2CF808185FFEDCFCE010E94DD005A
:1002D000E9CFDF91CF9108953FB7F89480917502EF
:1002E00090917602A0917702B091780226B5A89BF2
:1002F00005C02F3F19F00196A11DB11D3FBFBA2FB8
:10030000A92F982F8827BC01CD01620F711D811D77
:10031000911D42E0660F771F881F991F4A95D1F7FC
:1003200008958F929F92AF92BF92CF92DF92EF92F9
:10033000FF924B015C010E946C016B017C010E94E9
:100340006C016C197D098E099F09683E7340810517
:100350009105A8F321E0821A9108A108B10888EE5E
:10036000C80E83E0D81EE11CF11C81149104A10485
:10037000B10429F7FF90EF90DF90CF90BF90AF903E
:100380009F908F900895FC0101900020E9F731972C
:10039000AF01481B590BBC0181E892E00C945F004F
:1003A0008F929F92AF92BF920F931F93CF93DF9341
:1003B000CDB7DEB7A1970FB6F894DEBF0FBECDBFA5
:1003C00019A2423008F44AE08E010F5D1F4F842EBF
:1003D000912CB12CA12CA50194010E948D05E62F32
:1003E000B901CA01EA30F4F4E05DD801EE938D0161
:1003F000232B242B252B79F790E080E0109719F020
:10040000CD010E94C301A1960FB6F894DEBF0FBEC6
:10041000CDBFDF91CF911F910F91BF90AF909F9073
:100420008F900895E95CE1CFCF92DF92EF92FF9237
:10043000CF93DF936B017C016DE281E892E00E9433
:10044000FF00EC0166277727CB016C197D098E0927
:100450009F094AE00E94D0018C0F9D1FDF91CF9130
:10046000FF90EF90DF90CF900895CF93DF930E949D
:10047000C301EC0186E191E00E94C3018C0F9D1F36
:10048000DF91CF910895CF93DF93EC0160917902D2
:1004900070917A02072E000C880B990B97FF0BC006
:1004A0000E94140289E191E00E94C301CE01DF9114
:1004B000CF910C9435024AE00E94D001F3CFBC01E9
:1004C000990F880B990B97FD0C9414024AE00C9439
:1004D000D0010F931F93CF93C82F8B018091790286
:1004E00090917A020E945F028DE191E0CC23E1F0CD
:1004F0008CE291E0C130C1F08BE391E0C230A1F019
:1005000089E491E0C33081F086E591E0CF3F61F06E
:10051000C43060F087E691E00E94C3018C2F90E028
:100520000E945F0285E791E00E94C301C801CF915C
:100530001F910F910C9435021F920F920FB60F92DC
:1005400011242F933F934F935F936F937F938F93D8
:100550009F93AF93BF93EF93FF9381E892E00E9444
:10056000DD00FF91EF91BF91AF919F918F917F91AE
:100570006F915F914F913F912F910F900FBE0F9010
:100580001F9018951F920F920FB60F9211242F9360
:100590008F939F93EF93FF93E0919102F0919202DA
:1005A0008081E0919702F091980282FD1BC09081BA
:1005B00080919A028F5F8F7320919B02821741F086
:1005C000E0919A02F0E0EF57FD4F958F80939A02E9
:1005D000FF91EF919F918F912F910F900FBE0F90F0
:1005E0001F9018958081F4CF1F920F920FB60F9233
:1005F00011242F933F938F939F93AF93BF93809139
:10060000710290917202A0917302B09174023091C4
:10061000700223E0230F2D3758F50196A11DB11D5F
:10062000209370028093710290937202A0937302E0
:10063000B09374028091750290917602A091770236
:10064000B09178020196A11DB11D8093750290931F
:100650007602A0937702B0937802BF91AF919F91F9
:100660008F913F912F910F900FBE0F901F90189573
:1006700026E8230F0296A11DB11DD2CF789484B530
:10068000826084BD84B5816084BD85B5826085BD8E
:1006900085B5816085BD80916E00816080936E001C
:1006A000109281008091810082608093810080910E
:1006B00081008160809381008091800081608093BF
:1006C00080008091B10084608093B1008091B0007F
:1006D00081608093B00080917A00846080937A007A
:1006E00080917A00826080937A0080917A008160A4
:1006F00080937A0080917A00806880937A001092CB
:10070000C100E0919102F091920282E08083E09139
:100710008D02F0918E021082E0918F02F091900292
:100720008FEC808310929902E0919502F0919602ED
:1007300086E08083E0919302F09194028081806151
:100740008083E0919302F09194028081886080839D
:10075000E0919302F0919402808180688083E0911F
:100760009302F091940280818F7D808380E4809356
:100770007C0080917A00806480937A0080917A0076
:1007800086FDFCCF8091780060917900762F682FEC
:10079000072E000C880B990B6115710581059105D9
:1007A00011F00E94520588E791E00E94350268EE40
:1007B00073E080E090E00E9491011092800210921C
:1007C0007F0210927E0210927D0210927C021092A3
:1007D0007B0280E2E82EF12C95E3C92ED12C23E098
:1007E000A22EB12C38E4832E912C00E010E083E996
:1007F00091E00E94430280917F02909180028032BA
:10080000910529F085329105A9F0892BA9F48091F1
:10081000790290917A02019690937A0280937902FC
:100820008FE991E00E944302F0928002E0927F0201
:10083000712C02C077247A946FEB71E0872D0E94AF
:10084000690280917D0290917E0285339105B1F01D
:1008500088339105C9F0892BC1F480917902909178
:100860007A02019690937A028093790288ED91E062
:100870000E944302D0927E02C0927D028091790252
:1008800080FFEBCFD0E001C0DFEF6BE072E08D2F97
:100890000E94690280917B0290917C0288349105CC
:1008A000B1F08B349105F1F0892BE9F48091790254
:1008B00090917A02019690937A028093790284E271
:1008C00092E00E94430290927C0280927B0280918F
:1008D000790290917A02B5010E94BE05892B31F30D
:1008E000C0E001C0CFEF67E572E08C2F0E94690283
:1008F00060ED77E080E090E00E9491010115110524
:1009000009F475CF0E94C900882309F470CF0E94B2
:1009100000006DCFE1E8F2E01382128288EE93E0EE
:10092000A0E0B0E084839583A683B78388E091E05C
:100930009183808385EC90E09587848784EC90E0B8
:100940009787868780EC90E0918B808B81EC90E09C
:10095000938B828B82EC90E0958B848B86EC90E07D
:10096000978B868B118E128E138E148E08958F9214
:100970009F92AF92BF92CF92DF92EF92FF92CF936E
:10098000DF93EC01688179818A819B816115710512
:100990008105910521F464E279ED8BE597E02DE185
:1009A00033EF41E050E00E945B0549015A019B0191
:1009B000AC01A7EAB1E40E947A056B017C01ACEEC0
:1009C000B4EFA50194010E948805C60ED71EE81E4B
:1009D000F91EF7FE06C081E0C81AD108E10880E8D8
:1009E000F80AC882D982EA82FB82C701B6019F77E2
:1009F000DF91CF91FF90EF90DF90CF90BF90AF90BD
:100A00009F908F9008958F929F92AF92BF92CF92B6
:100A1000DF92EF92FF92609100017091010180914D
:100A2000020190910301611571058105910521F481
:100A300064E279ED8BE597E02DE133EF41E050E0A2
:100A40000E945B0549015A019B01AC01A7EAB1E490
:100A50000E947A056B017C01ACEEB4EFA501940114
:100A60000E948805C60ED71EE81EF91EF7FE06C0B6
:100A700081E0C81AD108E10880E8F80AC0920001B4
:100A8000D0920101E0920201F0920301C701B60188
:100A90009F77FF90EF90DF90CF90BF90AF909F90A7
:100AA0008F9008956093000170930101809302017B
:100AB000909303010895052E97FB1EF400940E9465
:100AC000720557FD07D00E948D0507FC03D04EF438
:100AD0000C94720550954095309521953F4F4F4F9E
:100AE0005F4F089590958095709561957F4F8F4FDA
:100AF0009F4F08950E94AF05A59F900DB49F900D44
:100B0000A49F800D911D11240895B7FF0C947A05C0
:100B10000E947A05821B930B0895A1E21A2EAA1B4C
:100B2000BB1BFD010DC0AA1FBB1FEE1FFF1FA2179D
:100B3000B307E407F50720F0A21BB30BE40BF50B9A
:100B4000661F771F881F991F1A9469F76095709523
:100B5000809590959B01AC01BD01CF010895A29FA6
:100B6000B001B39FC001A39F700D811D1124911D81
:100B7000B29F700D811D1124911D089597FB072EC2
:100B800016F4009407D077FD09D00E94D20507FC27
:100B900005D03EF4909581959F4F0895709561958D
:100BA0007F4F0895AA1BBB1B51E107C0AA1FBB1FA3
:100BB000A617B70710F0A61BB70B881F991F5A95E9
:100BC000A9F780959095BC01CD010895EE0FFF1F08
:0C0BD0000590F491E02D0994F894FFCFFB
:100BDC000100000000000000FF005F008C004C01D1
:100BEC00BD009B00AF000D0A00202D2000202D2001
:100BFC0050545F57414954494E472000202D2050F6
:100C0C00545F5949454C4445442000202D205054F4
:100C1C005F4558495445442000202D2050545F45D1
:100C2C004E4445442000202D2050545F46494E41EF
:100C3C004C495A45442000202D2050545F455252B7
:100C4C004F52202800292000446F6E652073657474
:100C5C0075702C2077616974696E6720312073651B
:100C6C00632E00766F6964206C6F6F7028290050BA
:100C7C00726F746F74687265616420312072756E66
:100C8C006E696E673B2077616974206F6E650076C4
:100C9C006F6964206C6F6F7028293A70726F746F73
:100CAC00746872656164310050726F746F7468722D
:100CBC0065616420322072756E6E696E673B2077B9
:100CCC0061697420756E74696C2028636F756E741D
:100CDC002025203229203D3D203000766F6964208C
:100CEC006C6F6F7028293A70726F746F74687265CC
:100CFC006164320050726F746F7468726561642045
:100D0C00332072756E6E696E673B20776169742053
:100D1C007768696C652028636F756E7420252033A5
:100D2C002920213D203000766F6964206C6F6F7034
:100D3C0028293A70726F746F74687265616433003D
:00000001FF
