:100000000C9435000C945D000C945D000C945D0024
:100010000C945D000C945D000C945D000C945D00EC
:100020000C945D000C945D000C945D000C945D00DC
:100030000C945D000C945D000C945D000C945D00CC
:100040000C949B020C945D000C9469020C94430286
:100050000C945D000C945D000C945D000C945D00AC
:100060000C945D000C945D002C0411241FBECFEF96
:10007000D8E0DEBFCDBF11E0A0E0B1E0E6E5F9E0F9
:1000800002C005900D92AE3CB107D9F722E0AEEC6C
:10009000B1E001C01D92AC37B207E1F710E0C5E353
:1000A000D0E004C02197FE010E94A304C433D1070D
:1000B000C9F70E94E5020C94A9040C940000AF92C9
:1000C000BF92CF92DF92EF92FF920F931F93CF9345
:1000D000DF936C017B018B01040F151FEB015E01A7
:1000E000AE18BF08C017D10759F06991D601ED913C
:1000F000FC910190F081E02DC6010995892B79F7DB
:10010000C501DF91CF911F910F91FF90EF90DF908C
:10011000CF90BF90AF900895FC01538D448D252F53
:1001200030E0842F90E0821B930B541710F0CF9691
:10013000089501970895FC01918D828D981761F0C3
:10014000A28DAE0FBF2FB11D5D968C91928D9F5FDA
:100150009F73928F90E008958FEF9FEF0895FC01B9
:10016000918D828D981731F0828DE80FF11D858D6C
:1001700090E008958FEF9FEF0895FC01918D228DFF
:10018000892F90E0805C9F4F821B91098F73992784
:1001900008958FED91E00E94BD0021E0892B09F4C4
:1001A00020E0822F089580E090E0892B29F00E94C2
:1001B000C90081110C9400000895FC01A48DA80FC2
:1001C000B92FB11DA35ABF4F2C91848D90E0019699
:1001D0008F739927848FA689B7892C93A089B189B9
:1001E0008C91837080648C93938D848D981306C05A
:1001F0000288F389E02D80818F7D80830895EF92BE
:10020000FF920F931F93CF93DF93EC0181E0888FD0
:100210009B8D8C8D98131AC0E889F989808185FFA0
:1002200015C09FB7F894EE89FF896083E889F98942
:1002300080818370806480839FBF81E090E0DF9144
:10024000CF911F910F91FF90EF900895F62E0B8D97
:1002500010E00F5F1F4F0F731127E02E8C8D8E1152
:100260000CC00FB607FCFACFE889F989808185FFB9
:10027000F5CFCE010E94DD00F1CFEB8DEC0FFD2F0D
:10028000F11DE35AFF4FF0829FB7F8940B8FEA8974
:10029000FB8980818062CFCFCF93DF93EC01888D83
:1002A0008823B9F0AA89BB89E889F9898C9185FDF1
:1002B00003C0808186FD0DC00FB607FCF7CF8C917F
:1002C00085FFF2CF808185FFEDCFCE010E94DD005A
:1002D000E9CFDF91CF9108953FB7F8948091D30192
:1002E0009091D401A091D501B091D60126B5A89BDB
:1002F00005C02F3F19F00196A11DB11D3FBFBA2FB8
:10030000A92F982F8827BC01CD01620F711D811D77
:10031000911D42E0660F771F881F991F4A95D1F7FC
:1003200008958F929F92AF92BF92CF92DF92EF92F9
:10033000FF924B015C010E946C016B017C010E94E9
:100340006C016C197D098E099F09683E7340810517
:100350009105A8F321E0821A9108A108B10888EE5E
:10036000C80E83E0D81EE11CF11C81149104A10485
:10037000B10429F7FF90EF90DF90CF90BF90AF903E
:100380009F908F900895FC0101900020E9F731972C
:10039000AF01481B590BBC018FED91E00C945F003D
:1003A0008F929F92AF92BF920F931F93CF93DF9341
:1003B000CDB7DEB7A1970FB6F894DEBF0FBECDBFA5
:1003C00019A2423008F44AE08E010F5D1F4F842EBF
:1003D000912CB12CA12CA50194010E946D04E62F53
:1003E000B901CA01EA30F4F4E05DD801EE938D0161
:1003F000232B242B252B79F790E080E0109719F020
:10040000CD010E94C301A1960FB6F894DEBF0FBEC6
:10041000CDBFDF91CF911F910F91BF90AF909F9073
:100420008F900895E95CE1CFCF92DF92EF92FF9237
:10043000CF93DF936B017C016DE28FED91E00E9421
:10044000FF00EC0166277727CB016C197D098E0927
:100450009F094AE00E94D0018C0F9D1FDF91CF9130
:10046000FF90EF90DF90CF900895CF93DF930E949D
:10047000C301EC0182E191E00E94C3018C0F9D1F3A
:10048000DF91CF9108951F920F920FB60F92112412
:100490002F933F934F935F936F937F938F939F938C
:1004A000AF93BF93EF93FF938FED91E00E94DD0038
:1004B000FF91EF91BF91AF919F918F917F916F913C
:1004C0005F914F913F912F910F900FBE0F901F9012
:1004D00018951F920F920FB60F9211242F938F939E
:1004E0009F93EF93FF93E091EF01F091F0018081F2
:1004F000E091F501F091F60182FD1BC090818091A1
:10050000F8018F5F8F732091F901821741F0E0911C
:10051000F801F0E0E152FE4F958F8093F801FF91D2
:10052000EF919F918F912F910F900FBE0F901F9081
:1005300018958081F4CF1F920F920FB60F9211245D
:100540002F933F938F939F93AF93BF938091CF014E
:100550009091D001A091D101B091D2013091CE0102
:1005600023E0230F2D3758F50196A11DB11D2093CF
:10057000CE018093CF019093D001A093D101B0938D
:10058000D2018091D3019091D401A091D501B09175
:10059000D6010196A11DB11D8093D3019093D40182
:1005A000A093D501B093D601BF91AF919F918F9148
:1005B0003F912F910F900FBE0F901F90189526E836
:1005C000230F0296A11DB11DD2CF789484B582600D
:1005D00084BD84B5816084BD85B5826085BD85B5E7
:1005E000816085BD80916E00816080936E00109265
:1005F00081008091810082608093810080918100E0
:100600008160809381008091800081608093800070
:100610008091B10084608093B1008091B0008160CE
:100620008093B00080917A00846080937A008091FA
:100630007A00826080937A0080917A008160809352
:100640007A0080917A00806880937A001092C100CD
:10065000E091EF01F091F00182E08083E091EB0105
:10066000F091EC011082E091ED01F091EE018FEC40
:1006700080831092F701E091F301F091F40186E09C
:100680008083E091F101F091F201808180618083AB
:10069000E091F101F091F201808188608083E09126
:1006A000F101F091F201808180688083E091F10195
:1006B000F091F20180818F7D80831092DC01109295
:1006C000DB011092DA011092D9011092D801109238
:1006D000D70185E191E00E94350268E873E180E08E
:1006E00090E00E94910103E010E0C0E0D0E081E2E0
:1006F000E82EF12C98E3C92ED12C2DE4A22EB12C9A
:1007000080E391E00E94C3016091DD017091DE0100
:10071000072E000C880B990B97FF58C00E941402FB
:1007200082E191E00E94C3018091DB019091DC01A4
:10073000009711F08197D1F46091DD017091DE0195
:100740006F5F7F4F7093DE016093DD01072E000C19
:10075000880B990B97FF3EC00E9414028EE391E034
:100760000E943502F092DC01E092DB018091D90118
:100770009091DA01009791F1C89721F48091DD0101
:1007800080FF2CC08091D7019091D801009709F487
:1007900044C08D34910549F48091DD019091DE01D2
:1007A000B8010E945904892BC1F160ED77E080E027
:1007B00090E00E949101209709F4A2CF0E94C90005
:1007C000882309F49DCF0E9400009ACF4AE00E943E
:1007D000D001A6CF4AE00E94D001C0CF6091DD01D8
:1007E0007091DE016F5F7F4F7093DE016093DD01DA
:1007F000072E000C880B990B97FF0BC00E94140268
:1008000081E691E00E943502D092DA01C092D901CE
:10081000B5CF4AE00E94D001F3CF6091DD01709125
:10082000DE016F5F7F4F7093DE016093DD01072E65
:10083000000C880B990B97FF0BC00E94140287E9EC
:1008400091E00E943502B092D801A092D701A4CFC6
:100850004AE00E94D001F3CFEFEDF1E01382128263
:1008600088EE93E0A0E0B0E084839583A683B7830D
:1008700084E091E09183808385EC90E09587848784
:1008800084EC90E09787868780EC90E0918B808B5A
:1008900081EC90E0938B828B82EC90E0958B848B43
:1008A00086EC90E0978B868B118E128E138E148EB1
:1008B000089597FB072E16F4009407D077FD09D012
:1008C0000E948F0407FC05D03EF4909581959F4FC0
:1008D0000895709561957F4F0895A1E21A2EAA1B85
:1008E000BB1BFD010DC0AA1FBB1FEE1FFF1FA217E0
:1008F000B307E407F50720F0A21BB30BE40BF50BDD
:10090000661F771F881F991F1A9469F76095709565
:10091000809590959B01AC01BD01CF010895AA1B64
:10092000BB1B51E107C0AA1FBB1FA617B70710F0DA
:10093000A61BB70B881F991F5A95A9F7809590950C
:10094000BC01CD010895EE0FFF1F0590F491E02D3D
:060950000994F894FFCFAA
:1009560000000000FF005F008C004C01BD009B0002
:10096600AF000D0A00446F6E652073657475702CB8
:100976002077616974696E672035207365632E0080
:10098600766F6964206C6F6F7028293A2000202DDD
:100996002050726F746F74687265616420312072C2
:1009A600756E6E696E673B2077616974206F6E6540
:1009B60000202D2050726F746F7468726561642018
:1009C600322072756E6E696E673B2077616974209E
:1009D600756E74696C2028636F756E7420252032DD
:1009E60029203D3D203000202D2050726F746F74F9
:1009F600687265616420332072756E6E696E673B3E
:100A06002077616974207768696C652028636F7543
:0E0A16006E74202520332920213D2030000061
:00000001FF
