:100000000C9435000C945D000C945D000C945D0024
:100010000C945D000C945D000C945D000C945D00EC
:100020000C945D000C945D000C945D000C945D00DC
:100030000C945D000C945D000C945D000C945D00CC
:100040000C948F050C945D000C945D050C943705A1
:100050000C945D000C945D000C945D000C945D00AC
:100060000C945D000C945D00A20611241FBECFEF1E
:10007000D8E0DEBFCDBF15E0A0E0B1E0ECEBFFE0E3
:1000800002C005900D92AA35B107D9F726E0AAE57E
:10009000B5E001C01D92AC30B207E1F710E0C5E356
:1000A000D0E004C02197FE010E94D607C433D107D7
:1000B000C9F70E94D9050C94DC070C940000AF929C
:1000C000BF92CF92DF92EF92FF920F931F93CF9345
:1000D000DF936C017B018B01040F151FEB015E01A7
:1000E000AE18BF08C017D10759F06991D601ED913C
:1000F000FC910190F081E02DC6010995892B79F7DB
:10010000C501DF91CF911F910F91FF90EF90DF908C
:10011000CF90BF90AF900895FC01538D448D252F53
:1001200030E0842F90E0821B930B541710F0CF9691
:10013000089501970895FC01918D828D981761F0C3
:10014000A28DAE0FBF2FB11D5D968C91928D9F5FDA
:100150009F73928F90E008958FEF9FEF0895FC01B9
:10016000918D828D981731F0828DE80FF11D858D6C
:1001700090E008958FEF9FEF0895FC01918D228DFF
:10018000892F90E0805C9F4F821B91098F73992784
:1001900008958FE695E00E94BD0021E0892B09F4C7
:1001A00020E0822F089580E090E0892B29F00E94C2
:1001B000C90081110C9400000895FC01A48DA80FC2
:1001C000B92FB11DA35ABF4F2C91848D90E0019699
:1001D0008F739927848FA689B7892C93A089B189B9
:1001E0008C91837080648C93938D848D981306C05A
:1001F0000288F389E02D80818F7D80830895EF92BE
:10020000FF920F931F93CF93DF93EC0181E0888FD0
:100210009B8D8C8D98131AC0E889F989808185FFA0
:1002200015C09FB7F894EE89FF896083E889F98942
:1002300080818370806480839FBF81E090E0DF9144
:10024000CF911F910F91FF90EF900895F62E0B8D97
:1002500010E00F5F1F4F0F731127E02E8C8D8E1152
:100260000CC00FB607FCFACFE889F989808185FFB9
:10027000F5CFCE010E94DD00F1CFEB8DEC0FFD2F0D
:10028000F11DE35AFF4FF0829FB7F8940B8FEA8974
:10029000FB8980818062CFCFCF93DF93EC01888D83
:1002A0008823B9F0AA89BB89E889F9898C9185FDF1
:1002B00003C0808186FD0DC00FB607FCF7CF8C917F
:1002C00085FFF2CF808185FFEDCFCE010E94DD005A
:1002D000E9CFDF91CF9108953FB7F89480916705FA
:1002E00090916805A0916905B0916A0526B5A89B13
:1002F00005C02F3F19F00196A11DB11D3FBFBA2FB8
:10030000A92F982F8827BC01CD01620F711D811D77
:10031000911D42E0660F771F881F991F4A95D1F7FC
:1003200008958F929F92AF92BF92CF92DF92EF92F9
:10033000FF920E946C014B015C0188EEC82E83E0A5
:10034000D82EE12CF12C0E946C01681979098A09D8
:100350009B09683E734081059105A8F321E0C21A0C
:10036000D108E108F10888EE880E83E0981EA11CF0
:10037000B11CC114D104E104F10429F7FF90EF90FE
:10038000DF90CF90BF90AF909F908F900895FC0129
:1003900001900020E9F73197AF01481B590BBC01D0
:1003A0008FE695E00C945F008F929F92AF92BF9280
:1003B0000F931F93CF93DF93CDB7DEB7A1970FB6FF
:1003C000F894DEBF0FBECDBF19A2423008F44AE058
:1003D0008E010F5D1F4F842E912CB12CA12CA501F5
:1003E00094010E94A507E62FB901CA01EA30F4F48E
:1003F000E05DD801EE938D01232B242B252B79F77B
:1004000090E080E0109719F0CD010E94C701A196FD
:100410000FB6F894DEBF0FBECDBFDF91CF911F9115
:100420000F91BF90AF909F908F900895E95CE1CFBE
:10043000CF92DF92EF92FF92CF93DF936B017C011B
:100440006DE28FE695E00E94FF00EC0166277727BA
:10045000CB016C197D098E099F094AE00E94D401E5
:100460008C0F9D1FDF91CF91FF90EF90DF90CF9089
:100470000895CF93DF930E94C701EC0186E191E0DC
:100480000E94C7018C0F9D1FDF91CF9108950C949E
:10049000C701CF93DF93EC0160916D0570916E05FC
:1004A000072E000C880B990B97FF0BC00E941802B7
:1004B00089E191E00E944702CE01DF91CF910C9437
:1004C00039024AE00E94D401F3CFCF93DF93EC01CD
:1004D000888199818831910589F08332910501F1F4
:1004E000892B91F48DE191E00E94490288E190E02E
:1004F0009983888380E0DF91CF91089585E391E02F
:100500000E94490283E0F7CF8BE491E00E94490208
:1005100086E791E00E94490283E290E09983888314
:100520008FEFE9CFBC01990F880B990B97FD0C94C5
:1005300018024AE00C94D4010F931F93CF93C82F55
:100540008B0180916D0590916E050E9492028CE95D
:1005500091E0CC23E1F08BEA91E0C130C1F08AEB6D
:1005600091E0C230A1F088EC91E0C33081F085EDDC
:1005700091E0CF3F61F0C43060F086EE91E00E94E0
:1005800047028C2F90E00E94920284EF91E00E943B
:100590004702C801CF911F910F910C943902CF935C
:1005A000DF93EC0187EF91E00E9449020E949101E4
:1005B00010926C0510926B058BE695E0FE01099593
:1005C000823080F46DE072E00E949C0280916D05A3
:1005D00090916E05019690936E0580936D050E9433
:1005E0009101EACF62E272E00E949C0280916D0567
:1005F00090916E05019690936E0580936D05DF9145
:10060000CF910C9491010F931F93CF938C01C62F20
:1006100080916D0590916E050E94920289E191E0B2
:100620000E944702C8010E94470281EF91E00E94A8
:1006300047026C2F70E090E080E04AE00E94D40115
:1006400087E595E0CF911F910F910C9439020F939C
:100650001F93CF93FC01608171816236710509F4AB
:1006600079C08C016336710580F56835710509F430
:100670006FC06D35710509F46DC06115710571F5B7
:1006800087E392E00E9449020E941B0725E030E0C8
:1006900040E050E00E94730760935A05662309F416
:1006A00042C06C5F60935A058FE492E00E9403039E
:1006B00080915A0590E09A95F80191838083C0E07B
:1006C0008C2FCF911F910F9108956530FFEF7F0719
:1006D00089F1A8F4CFEF6736710591F36115FFEF4B
:1006E0007F0710F464E070E0C62F8DEF92E00E9467
:1006F000030382E690E0F80191838083E1CF6630C6
:10070000EFEF7E07D9F06730FFEF7F0739F767E03B
:100710008FEC92E00E9403038DE590E0F801918355
:100720008083C7E0CDCF60E087E692E00E940303BC
:10073000C3E0C6CF65E08DE792E0F8CF66E081EADE
:1007400092E00E94030388E590E0F80191838083A2
:10075000C6E0B6CFC4E0B4CFCF93DF93EC0188817D
:10076000998181389105D9F030F40097A1F08C3748
:100770009105A9F00DC08C38910509F450C082395B
:10078000910529F086389105A9F782E001C08FEF25
:10079000DF91CF91089584E293E00E9449020E9484
:1007A0001B0728E030E040E050E00E9473076093B0
:1007B0005B05623050F489E393E00E9449028CE7C4
:1007C00090E09983888380E0E3CF643050F481E542
:1007D00093E00E94490281E890E09983888381E058
:1007E000D7CF663048F486E693E00E94490286E857
:1007F00090E099838883C9CF0E941B0724E030E0F2
:1008000040E050E00E94730760935B056C5F8AE7ED
:1008100093E00E9403038CE890E0998388838091A1
:100820005B058C5F843008F0B3CF84E0B1CFCF9309
:10083000DF93EC0168817981663D710579F0663E50
:10084000710509F441C06115710561F58FE893E008
:100850000E944902109261051092600580E695E0C1
:100860000E94AC03823070F4811107C026ED30E0A5
:1008700039832883DF91CF91089587EA93E00E941E
:100880004902ECCF9CEF980F9B3F30F490E09A9593
:100890009983888380E0EECF8CEC93E00E9449023C
:1008A00083E0E8CF61158FEF780710F464E070E023
:1008B00082EE93E00E9403038DEF93E00E944902D1
:1008C00086EE90E0998388838FEFD4CFCF93DF9328
:1008D000EC01688179816F3B710591F06B3C71058A
:1008E000C9F16115710521F583E194E00E94490287
:1008F00010925F0510925E058FEB90E099838883DC
:100900008EE595E00E94AC03823040F09CEF980F9A
:100910009B3F30F490E09A959983888380E005C0EE
:100920008BE294E00E94490283E0DF91CF91089529
:1009300061158FEF780710F464E070E081E494E0D3
:100940000E9403038CE594E00E9449028BEC90E046
:10095000998388838FEFE9CFCF93DF93EC01688190
:100960007981623A710591F0603B7105C9F16115B9
:10097000710521F582E794E00E94490210925D051D
:1009800010925C0582EA90E0998388838CE595E07B
:100990000E94AC03823040F09CEF980F9B3F30F4F4
:1009A00090E09A959983888380E005C08AE894E076
:1009B0000E94490283E0DF91CF91089561158FEF86
:1009C000780710F464E070E080EA94E00E9403038A
:1009D0008BEB94E00E94490280EB90E0998388833E
:1009E0008FEFE9CF1F93CF93DF93EC01688179817B
:1009F0006C32710599F06D337105B9F161157105AE
:100A000011F581ED94E00E9449028CE290E0998317
:100A1000888380E0DF91CF911F9108950E941B078A
:100A20002AEF30E040E050E00E94730714E0160F18
:100A3000612F89EE94E00E940303612F70E07A95A4
:100A400079836883E6CF61158FEF780710F464E04F
:100A500070E081E095E00E9403038CE195E00E9444
:100A600049028DE390E0998388838FEFD3CF1F9263
:100A70000F920FB60F9211242F933F934F935F93D2
:100A80006F937F938F939F93AF93BF93EF93FF9356
:100A90008FE695E00E94DD00FF91EF91BF91AF914D
:100AA0009F918F917F916F915F914F913F912F9186
:100AB0000F900FBE0F901F9018951F920F920FB6B8
:100AC0000F9211242F938F939F93EF93FF93E091B5
:100AD0007F05F09180058081E0918505F091860584
:100AE00082FD1BC09081809188058F5F8F7320915C
:100AF0008905821741F0E0918805F0E0E159FA4F4D
:100B0000958F80938805FF91EF919F918F912F9101
:100B10000F900FBE0F901F9018958081F4CF1F92F9
:100B20000F920FB60F9211242F933F938F939F93A1
:100B3000AF93BF938091630590916405A091650583
:100B4000B09166053091620523E0230F2D3758F5EB
:100B50000196A11DB11D20936205809363059093BA
:100B60006405A0936505B093660580916705909133
:100B70006805A0916905B0916A050196A11DB11D96
:100B80008093670590936805A0936905B0936A0503
:100B9000BF91AF919F918F913F912F910F900FBE79
:100BA0000F901F90189526E8230F0296A11DB11DE6
:100BB000D2CF789484B5826084BD84B5816084BDD1
:100BC00085B5826085BD85B5816085BD80916E00EB
:100BD000816080936E00109281008091810082601C
:100BE0008093810080918100816080938100809159
:100BF00080008160809380008091B1008460809348
:100C0000B1008091B00081608093B00080917A0043
:100C1000846080937A0080917A00826080937A0069
:100C200080917A00816080937A0080917A00806858
:100C300080937A001092C100E0917F05F0918005C9
:100C400082E08083E0917B05F0917C051082E09149
:100C50007D05F0917E058FEC808310928705E091F1
:100C60008305F091840586E08083E0918105F09111
:100C70008205808180618083E0918105F091820509
:100C8000808188608083E0918105F0918205808178
:100C900080688083E0918105F091820580818F7D5D
:100CA000808380E480937C0080917A0080648093CC
:100CB0007A0080917A0086FDFCCF80917800609167
:100CC0007900762F682F072E000C880B990B611581
:100CD00071058105910511F00E946A0782E395E094
:100CE0000E9439020E94910100E010E08DE495E03D
:100CF0000E944902C8E0D0E085E692E00E94CF025F
:100D000082EF94E00E94CF0287E293E00E94CF023C
:100D10008CEA94E00E94CF0286E694E00E94CF0223
:100D200087E194E00E94CF02219731F70E94910160
:100D300001151105D9F20E94C9008823B9F20E9459
:100D40000000D4CFEFE6F5E01382128288EE93E044
:100D5000A0E0B0E084839583A683B78388E091E028
:100D60009183808385EC90E09587848784EC90E084
:100D70009787868780EC90E0918B808B81EC90E068
:100D8000938B828B82EC90E0958B848B86EC90E049
:100D9000978B868B118E128E138E148E08958F92E0
:100DA0009F92AF92BF92CF92DF92EF92FF92CF933A
:100DB000DF93EC01688179818A819B8161157105DE
:100DC0008105910521F464E279ED8BE597E02DE151
:100DD00033EF41E050E00E94730749015A019B0143
:100DE000AC01A7EAB1E40E9492076B017C01ACEE72
:100DF000B4EFA50194010E94A007C60ED71EE81EFD
:100E0000F91EF7FE06C081E0C81AD108E10880E8A3
:100E1000F80AC882D982EA82FB82C701B6019F77AD
:100E2000DF91CF91FF90EF90DF90CF90BF90AF9088
:100E30009F908F9008958F929F92AF92BF92CF9282
:100E4000DF92EF92FF926091000170910101809119
:100E5000020190910301611571058105910521F44D
:100E600064E279ED8BE597E02DE133EF41E050E06E
:100E70000E94730749015A019B01AC01A7EAB1E442
:100E80000E9492076B017C01ACEEB4EFA5019401C6
:100E90000E94A007C60ED71EE81EF91EF7FE06C068
:100EA00081E0C81AD108E10880E8F80AC092000180
:100EB000D0920101E0920201F0920301C701B60154
:100EC0009F77FF90EF90DF90CF90BF90AF909F9073
:100ED0008F90089560930001709301018093020147
:100EE000909303010895052E97FB1EF400940E9431
:100EF0008A0757FD07D00E94A50707FC03D04EF4D0
:100F00000C948A0750954095309521953F4F4F4F4F
:100F10005F4F089590958095709561957F4F8F4FA5
:100F20009F4F08950E94C707A59F900DB49F900DF5
:100F3000A49F800D911D11240895B7FF0C94920772
:100F40000E949207821B930B0895A1E21A2EAA1BFE
:100F5000BB1BFD010DC0AA1FBB1FEE1FFF1FA21769
:100F6000B307E407F50720F0A21BB30BE40BF50B66
:100F7000661F771F881F991F1A9469F760957095EF
:100F8000809590959B01AC01BD01CF010895A29F72
:100F9000B001B39FC001A39F700D811D1124911D4D
:100FA000B29F700D811D1124911D0895EE0FFF1F3A
:0C0FB0000590F491E02D0994F894FFCF17
:100FBC000100000000000000FF005F008C004C01ED
:100FCC00BD009B00AF000D0A00202D200050545F87
:100FDC00424547494E28292070726F746F746872AD
:100FEC00656164310050545F454E44454420707235
:100FFC006F746F746872656164310050545F434163
:10100C00544348414E592829202121554E524541DF
:10101C00434841424C4521212070726F746F7468B3
:10102C0072656164310050545F454E44282920217B
:10103C0021554E524541434841424C452121207097
:10104C00726F746F7468726561643100202D20506A
:10105C00545F57414954494E472000202D2050548D
:10106C005F5949454C4445442000202D2050545F85
:10107C004558495445442000202D2050545F454E7E
:10108C004445442000202D2050545F46494E414C8D
:10109C00495A45442000202D2050545F4552524F50
:1010AC0052202800292000766F69642074657374BF
:1010BC005F72756E28293A535441525400766F6909
:1010CC006420746573745F72756E28293A4C4F4FA7
:1010DC005000766F696420746573745F72756E2846
:1010EC00293A444F4E450050545F424547494E28DB
:1010FC00292070726F746F7468726561643300506C
:10110C00545F524149534528292070726F746F7493
:10111C006872656164330050545F454E4445442009
:10112C0070726F746F746872656164330050545FD1
:10113C0043415443482850545F4552524F52202B40
:10114C002031292070726F746F746872656164331A
:10115C000050545F43415443482850545F45525209
:10116C004F52202B20322920414E44205448524FBC
:10117C00572070726F746F746872656164330050BD
:10118C00545F43415443482850545F4552524F5288
:10119C00202B20332920414E44205448524F5720B5
:1011AC0070726F746F746872656164330050545F51
:1011BC004341544348414E59282920414E44205222
:1011CC00455448524F572070726F746F7468726533
:1011DC006164330050545F424547494E28292069C9
:1011EC0074657261746F72310050545F5741495489
:1011FC005F4F4E452829206974657261746F723196
:10120C000050545F5949454C442829206974657233
:10121C0061746F72310050545F455849542829202D
:10122C006974657261746F72310050545F54485226
:10123C004F572829206974657261746F72310050A0
:10124C00545F424547494E28292070726F746F7461
:10125C006872656164360050545F464F5245414395
:10126C004828292050545F5949454C444544207026
:10127C00726F746F746872656164360050545F45A8
:10128C004E4445442070726F746F7468726561646B
:10129C00360050545F4341544348414E592829204D
:1012AC0070726F746F746872656164360050545F4D
:1012BC00454E4428292070726F746F746872656192
:1012CC0064360050545F424547494E2829207072BD
:1012DC006F746F746872656164350050545F454E6D
:1012EC004445442070726F746F7468726561643524
:1012FC000050545F4341544348414E5928292070B3
:10130C00726F746F746872656164350050545F4518
:10131C004E4428292070726F746F74687265616412
:10132C00350050545F424547494E28292070726F52
:10133C00746F746872656164340050545F454E4438
:10134C0045442070726F746F746872656164340008
:10135C0050545F4341544348414E592829207072E0
:10136C006F746F746872656164340050545F454EDD
:10137C004428292070726F746F74687265616434CC
:10138C000050545F424547494E28292070726F74B3
:10139C006F746872656164320050545F52414953F6
:1013AC004528292070726F746F746872656164329D
:1013BC000050545F4341544348414E5928292070F2
:1013CC00726F746F746872656164320050545F455B
:1013DC004E4428292070726F746F74687265616452
:1013EC003200446F6E652073657475702C207761C4
:1013FC006974696E672031207365632E00766F699E
:0A140C0064206C6F6F702829000047
:00000001FF
