:100000000C9435000C945D000C945D000C945D0024
:100010000C945D000C945D000C945D000C945D00EC
:100020000C945D000C945D000C945D000C945D00DC
:100030000C945D000C945D000C945D000C945D00CC
:100040000C9415030C945D000C94E3020C94BD0217
:100050000C945D000C945D000C945D000C945D00AC
:100060000C945D000C945D001C0511241FBECFEFA5
:10007000D8E0DEBFCDBF12E0A0E0B1E0E0EBFCE0F5
:1000800002C005900D92A23AB107D9F723E0A2EA87
:10009000B2E001C01D92A035B207E1F710E0C5E360
:1000A000D0E004C02197FE010E945006C433D1075E
:1000B000C9F70E945F030C9456060C940000AF929F
:1000C000BF92CF92DF92EF92FF920F931F93CF9345
:1000D000DF936C017B018B01040F151FEB015E01A7
:1000E000AE18BF08C017D10759F06991D601ED913C
:1000F000FC910190F081E02DC6010995892B79F7DB
:10010000C501DF91CF911F910F91FF90EF90DF908C
:10011000CF90BF90AF900895FC01538D448D252F53
:1001200030E0842F90E0821B930B541710F0CF9691
:10013000089501970895FC01918D828D981761F0C3
:10014000A28DAE0FBF2FB11D5D968C91928D9F5FDA
:100150009F73928F90E008958FEF9FEF0895FC01B9
:10016000918D828D981731F0828DE80FF11D858D6C
:1001700090E008958FEF9FEF0895FC01918D228DFF
:10018000892F90E0805C9F4F821B91098F73992784
:10019000089583EB92E00E94BD0021E0892B09F4D1
:1001A00020E0822F089580E090E0892B29F00E94C2
:1001B000C90081110C9400000895FC01A48DA80FC2
:1001C000B92FB11DA35ABF4F2C91848D90E0019699
:1001D0008F739927848FA689B7892C93A089B189B9
:1001E0008C91837080648C93938D848D981306C05A
:1001F0000288F389E02D80818F7D80830895EF92BE
:10020000FF920F931F93CF93DF93EC0181E0888FD0
:100210009B8D8C8D98131AC0E889F989808185FFA0
:1002200015C09FB7F894EE89FF896083E889F98942
:1002300080818370806480839FBF81E090E0DF9144
:10024000CF911F910F91FF90EF900895F62E0B8D97
:1002500010E00F5F1F4F0F731127E02E8C8D8E1152
:100260000CC00FB607FCFACFE889F989808185FFB9
:10027000F5CFCE010E94DD00F1CFEB8DEC0FFD2F0D
:10028000F11DE35AFF4FF0829FB7F8940B8FEA8974
:10029000FB8980818062CFCFCF93DF93EC01888D83
:1002A0008823B9F0AA89BB89E889F9898C9185FDF1
:1002B00003C0808186FD0DC00FB607FCF7CF8C917F
:1002C00085FFF2CF808185FFEDCFCE010E94DD005A
:1002D000E9CFDF91CF9108953FB7F8948091A702BD
:1002E0009091A802A091A902B091AA0226B5A89B5C
:1002F00005C02F3F19F00196A11DB11D3FBFBA2FB8
:10030000A92F982F8827BC01CD01620F711D811D77
:10031000911D42E0660F771F881F991F4A95D1F7FC
:1003200008958F929F92AF92BF92CF92DF92EF92F9
:10033000FF920E946C014B015C0188EEC82E83E0A5
:10034000D82EE12CF12C0E946C01681979098A09D8
:100350009B09683E734081059105A8F321E0C21A0C
:10036000D108E108F10888EE880E83E0981EA11CF0
:10037000B11CC114D104E104F10429F7FF90EF90FE
:10038000DF90CF90BF90AF909F908F900895FC0129
:1003900001900020E9F73197AF01481B590BBC01D0
:1003A00083EB92E00C945F008F929F92AF92BF928A
:1003B0000F931F93CF93DF93CDB7DEB7A1970FB6FF
:1003C000F894DEBF0FBECDBF19A2423008F44AE058
:1003D0008E010F5D1F4F842E912CB12CA12CA501F5
:1003E00094010E941F06E62FB901CA01EA30F4F415
:1003F000E05DD801EE938D01232B242B252B79F77B
:1004000090E080E0109719F0CD010E94C701A196FD
:100410000FB6F894DEBF0FBECDBFDF91CF911F9115
:100420000F91BF90AF909F908F900895E95CE1CFBE
:10043000CF93DF930E94C701EC0186E191E00E9417
:10044000C7018C0F9D1FDF91CF9108950C94C701B8
:10045000CF92DF92EF92FF92CF93DF936C01990FCF
:10046000EE08FF08F7FE19C06DE283EB92E00E94F0
:10047000FF00EC0166277727CB016C197D098E09F7
:100480009F094AE00E94D4018C0F9D1FDF91CF91FC
:10049000FF90EF90DF90CF9008954AE0C701B6013A
:1004A000DF91CF91FF90EF90DF90CF900C94D4012B
:1004B000CF93C82F8091B1029091B2020E9428027E
:1004C00089E191E0CC23E1F088E291E0C130C1F014
:1004D00087E391E0C230A1F085E491E0C33081F080
:1004E00082E591E0CF3F61F0C43060F084E691E0B6
:1004F0000E9426028C2F90E00E94280282E791E061
:100500000E94260285E791E0CF910C941802CF93C8
:10051000DF93EC018091B1029091B2020E94280217
:1005200085E891E00E942602CE01DF91CF910C94E4
:1005300018020F931F93CF938C01C62F8091B102A5
:100540009091B2020E94280285E891E00E94260262
:10055000C8010E9426028FE691E00E9426026C2FBD
:1005600070E090E080E04AE00E94D40183E891E0EE
:10057000CF911F910F910C9418021F920F920FB6FA
:100580000F9211242F933F934F935F936F937F9319
:100590008F939F93AF93BF93EF93FF9383EB92E07F
:1005A0000E94DD00FF91EF91BF91AF919F918F91DC
:1005B0007F916F915F914F913F912F910F900FBE5F
:1005C0000F901F9018951F920F920FB60F92112443
:1005D0002F938F939F93EF93FF93E091C302F0913A
:1005E000C4028081E091C902F091CA0282FD1BC061
:1005F00090818091CC028F5F8F732091CD02821702
:1006000041F0E091CC02F0E0ED54FD4F958F8093E6
:10061000CC02FF91EF919F918F912F910F900FBE80
:100620000F901F9018958081F4CF1F920F920FB6F4
:100630000F9211242F933F938F939F93AF93BF9368
:100640008091A3029091A402A091A502B091A6026C
:100650003091A20223E0230F2D3758F50196A11DFA
:10066000B11D2093A2028093A3029093A402A093B1
:10067000A502B093A6028091A7029091A802A09132
:10068000A902B091AA020196A11DB11D8093A702F3
:100690009093A802A093A902B093AA02BF91AF9130
:1006A0009F918F913F912F910F900FBE0F901F90B0
:1006B000189526E8230F0296A11DB11DD2CF78947C
:1006C00084B5826084BD84B5816084BD85B5826057
:1006D00085BD85B5816085BD80916E008160809308
:1006E0006E00109281008091810082608093810071
:1006F0008091810081608093810080918000816081
:10070000809380008091B10084608093B1008091DB
:10071000B00081608093B00080917A008460809303
:100720007A0080917A00826080937A0080917A00CA
:10073000816080937A0080917A00806880937A004B
:100740001092C100E091C302F091C40282E0808364
:10075000E091BF02F091C0021082E091C102F091DD
:10076000C2028FEC80831092CB02E091C702F0911D
:10077000C80286E08083E091C502F091C6028081C4
:1007800080618083E091C502F091C602808188601B
:100790008083E091C502F091C602808180688083E9
:1007A000E091C502F091C60280818F7D808380E454
:1007B00080937C0080917A00806480937A0080919D
:1007C0007A0086FDFCCF8091780060917900762FC9
:1007D000682F072E000C880B990B61157105810598
:1007E000910511F00E94E40589E891E00E94180249
:1007F0000E94910138E0C32ED12CE12CF12C44E071
:10080000442E512C612C712C84EA91E00E94260226
:100810008091B1029091B2020E94280286E191E09B
:100820000E94C70108E010E082EB91E00E942602DE
:100830008091B1029091B2020E94280286E191E07B
:100840000E94C7010E9491011092B0021092AF0263
:1008500084E5282E312C9AE4A92EB12C2DEE822E7F
:10086000912C6091AF027091B002613E710519F157
:1008700090F461157105B9F061159FEF790710F4D7
:1008800064E070E086E892E00E9499029092B002E3
:100890008092AF0206C0693E710519F06D3E710588
:1008A00059F7D3E051C087EC91E00E948702109283
:1008B000AD021092AC028091AC029091AD028F34E7
:1008C000910541F150F4009709F18A34910511F135
:1008D000C23078F4C11158C02FC08A35910509F48F
:1008E00077C08036910509F47BC08435910581F786
:1008F000C2E08CEF8C0F8B3F08F074C08C2F90E01F
:100900009A959093B0028093AF021DC08FED91E055
:100910000E9487020E949505A70196010E94ED059D
:100920006093AB02623020F584EF91E00E94870271
:10093000B092AD02A092AC0281EE90E09093B00232
:100940008093AF02C0E0D0E0D093AE02D23008F086
:1009500054C00E9491018D2F0E9458028091B102D3
:100960009091B20201969093B2028093B10279CF36
:10097000643080F48CE092E00E9487028FE490E083
:100980009093AD028093AC028AE492E00E948702C9
:10099000C1E091CF663048F481E292E00E94870284
:1009A0003092AD022092AC02A3CF0E949505A30124
:1009B00092010E94ED056093AB026C5F85E392E0CB
:1009C0000E9499028AE590E09093AD028093AC0278
:1009D000C091AB02CC5FC43008F08BCFC4E089CFAC
:1009E000C3E087CF80E792E00E94870289EE90E023
:1009F0009093B0028093AF0254CF0E9491018D2F4B
:100A00000E9458028091B1029091B2020196909397
:100A1000B2028093B1020150110909F005CF80E0C4
:100A200090E0892B09F4F0CE0E94C900882309F4D4
:100A3000EBCE0E940000E8CEE3EBF2E013821282DC
:100A400088EE93E0A0E0B0E084839583A683B7832B
:100A500088E091E09183808385EC90E0958784879E
:100A600084EC90E09787868780EC90E0918B808B78
:100A700081EC90E0938B828B82EC90E0958B848B61
:100A800086EC90E0978B868B118E128E138E148ECF
:100A900008958F929F92AF92BF92CF92DF92EF9282
:100AA000FF92CF93DF93EC01688179818A819B81EA
:100AB000611571058105910521F464E279ED8BE5FD
:100AC00097E02DE133EF41E050E00E94ED05490150
:100AD0005A019B01AC01A7EAB1E40E940C066B012C
:100AE0007C01ACEEB4EFA50194010E941A06C60E7B
:100AF000D71EE81EF91EF7FE06C081E0C81AD1080D
:100B0000E10880E8F80AC882D982EA82FB82C7013C
:100B1000B6019F77DF91CF91FF90EF90DF90CF905C
:100B2000BF90AF909F908F9008958F929F92AF92B9
:100B3000BF92CF92DF92EF92FF926091000170918D
:100B400001018091020190910301611571058105F8
:100B5000910521F464E279ED8BE597E02DE133EF27
:100B600041E050E00E94ED0549015A019B01AC01B2
:100B7000A7EAB1E40E940C066B017C01ACEEB4EF75
:100B8000A50194010E941A06C60ED71EE81EF91E82
:100B9000F7FE06C081E0C81AD108E10880E8F80A2B
:100BA000C0920001D0920101E0920201F092030193
:100BB000C701B6019F77FF90EF90DF90CF90BF9075
:100BC000AF909F908F900895609300017093010102
:100BD00080930201909303010895052E97FB1EF464
:100BE00000940E94040657FD07D00E941F0607FCD0
:100BF00003D04EF40C940406509540953095219501
:100C00003F4F4F4F5F4F0895909580957095619538
:100C10007F4F8F4F9F4F08950E944106A59F900DD3
:100C2000B49F900DA49F800D911D11240895B7FFCE
:100C30000C940C060E940C06821B930B0895A1E2F3
:100C40001A2EAA1BBB1BFD010DC0AA1FBB1FEE1F46
:100C5000FF1FA217B307E407F50720F0A21BB30B91
:100C6000E40BF50B661F771F881F991F1A9469F70D
:100C700060957095809590959B01AC01BD01CF0169
:100C80000895A29FB001B39FC001A39F700D811D65
:100C90001124911DB29F700D811D1124911D089585
:100CA000EE0FFF1F0590F491E02D0994F894FFCF0B
:100CB0000100000000000000FF005F008C004C01FC
:100CC000BD009B00AF000D0A00202D2050545F573F
:100CD000414954494E472000202D2050545F594926
:100CE000454C4445442000202D2050545F45584930
:100CF0005445442000202D2050545F454E44454427
:100D00002000202D2050545F46494E414C495A49FD
:100D10004E472000202D2050545F4552524F522004
:100D20002800292000766F696420746573745F72EF
:100D3000756E282900202D2000446F6E6520736594
:100D40007475702C2077616974696E672031207327
:100D500065632E00766F6964206C6F6F7028293A86
:100D600020007374617274696E6720746573745FB8
:100D700072756E28293A0050545F424547494E2803
:100D8000292070726F746F746872656164350050E9
:100D9000545F424547494E28292069746572617441
:100DA0006F72310050545F574149545F4F4E452890
:100DB00029206974657261746F72310050545F59F3
:100DC00049454C442829206974657261746F7231F9
:100DD0000050545F45584954282920697465726150
:100DE000746F72310050545F5448524F5728292075
:100DF0006974657261746F72310050545F464F526E
:100E00004541434828292050545F5949454C4445A1
:100E1000442070726F746F7468726561642035006D
:100E200050545F454E4445442070726F746F74682F
:100E300072656164350050545F4341544348414EEC
:100E40005928292070726F746F74687265616435F7
:020E50000000A0
:00000001FF
