:100000000C945A000C9482000C9482000C94820090
:100010000C9482000C9482000C9482000C94820058
:100020000C9482000C9482000C9482000C94820048
:100030000C9482000C9482000C9482000C94820038
:100040000C94FE020C9482000C94CC020C94A60238
:100050000C9482000C9482000C9482000C94820018
:100060000C9482000C948200207969656C6465644C
:100070002076616C75653A20002920002028002038
:100080002D206974657261746F72200050545F5442
:100090004852454144286D61696E2D6472697665E8
:1000A000722900766F6964206C6F6F7028293A207E
:1000B0000000FC0411241FBECFEFD8E0DEBFCDBF8F
:1000C00011E0A0E0B1E0E0E7FCE002C005900D9295
:1000D000A433B107D9F721E0A4E3B1E001C01D9238
:1000E000A63EB207E1F710E0CAE5D0E004C02197D0
:1000F000FE010E943006C935D107C9F70E944803A6
:100100000C9436060C940000AF92BF92CF92DF920F
:10011000EF92FF920F931F93CF93DF936C017B01BC
:100120008B01040F151FEB015E01AE18BF08C0174D
:10013000D10759F06991D601ED91FC910190F081C0
:10014000E02DC6010995892B79F7C501DF91CF9183
:100150001F910F91FF90EF90DF90CF90BF90AF90E5
:100160000895FC01538D448D252F30E0842F90E0BD
:10017000821B930B541710F0CF96089501970895A2
:10018000FC01918D828D981761F0A28DAE0FBF2F6B
:10019000B11D5D968C91928D9F5F9F73928F90E0C1
:1001A00008958FEF9FEF0895FC01918D828D981730
:1001B00031F0828DE80FF11D858D90E008958FEF6D
:1001C0009FEF0895FC01918D228D892F90E0805C36
:1001D0009F4F821B91098F739927089589E491E0BD
:1001E0000E94E20021E0892B09F420E0822F08958B
:1001F00080E090E0892B29F00E94EE0081110C94A0
:1002000000000895FC01A48DA80FB92FB11DA35AB9
:10021000BF4F2C91848D90E001968F739927848F26
:10022000A689B7892C93A089B1898C918370806449
:100230008C93938D848D981306C00288F389E02DEA
:1002400080818F7D80830895EF92FF920F931F939B
:10025000CF93DF93EC0181E0888F9B8D8C8D981379
:100260001AC0E889F989808185FF15C09FB7F89485
:10027000EE89FF896083E889F989808183708064D1
:1002800080839FBF81E090E0DF91CF911F910F911C
:10029000FF90EF900895F62E0B8D10E00F5F1F4F2B
:1002A0000F731127E02E8C8D8E110CC00FB607FC3A
:1002B000FACFE889F989808185FFF5CFCE010E94C8
:1002C0000201F1CFEB8DEC0FFD2FF11DE35AFF4F33
:1002D000F0829FB7F8940B8FEA89FB898081806256
:1002E000CFCF0F931F93CF93DF938C01D0E0C0E06B
:1002F000F801EC0FFD1F6491662341F089E491E061
:100300000E942401892B11F02196F2CFCE01DF91BA
:10031000CF911F910F910895CF93DF93EC01888DBA
:100320008823B9F0AA89BB89E889F9898C9185FD70
:1003300003C0808186FD0DC00FB607FCF7CF8C91FE
:1003400085FFF2CF808185FFEDCFCE010E940201B3
:10035000E9CFDF91CF9108953FB7F89480913901AB
:1003600090913A01A0913B01B0913C0126B5A89B28
:1003700005C02F3F19F00196A11DB11D3FBFBA2F37
:10038000A92F982F8827BC01CD01620F711D811DF7
:10039000911D42E0660F771F881F991F4A95D1F77C
:1003A00008958F929F92AF92BF92CF92DF92EF9279
:1003B000FF924B015C010E94AC016B017C010E9429
:1003C000AC016C197D098E099F09683E7340810557
:1003D0009105A8F321E0821A9108A108B10888EEDE
:1003E000C80E83E0D81EE11CF11C81149104A10405
:1003F000B10429F7FF90EF90DF90CF90BF90AF90BE
:100400009F908F900895FC0101900020E9F73197AB
:10041000AF01481B590BBC0189E491E00C948400A6
:100420008F929F92AF92BF920F931F93CF93DF93C0
:10043000CDB7DEB7A1970FB6F894DEBF0FBECDBF24
:1004400019A2423008F44AE08E010F5D1F4F842E3E
:10045000912CB12CA12CA50194010E94FF05E62F3F
:10046000B901CA01EA30F4F4E05DD801EE938D01E0
:10047000232B242B252B79F790E080E0109719F09F
:10048000CD010E940302A1960FB6F894DEBF0FBE05
:10049000CDBFDF91CF911F910F91BF90AF909F90F3
:1004A0008F900895E95CE1CFCF92DF92EF92FF92B7
:1004B000CF93DF93EC01C0904701D09048010D2C01
:1004C000000CEE08FF084AE0C701B601F7FE0DC0B8
:1004D0006DE289E491E00E94240166277727CB0131
:1004E0006C197D098E099F094AE00E9410028FE76E
:1004F00090E00E9471016A8170E090E080E04AE043
:100500000E9410028CE790E00E947101688179815D
:1005100090E080E04AE00E94100289E790E00E94AB
:10052000710188E690E00E9471016B8170E090E0BB
:1005300080E04AE00E94100286E191E0DF91CF91D5
:10054000FF90EF90DF90CF900C9403021F920F92D8
:100550000FB60F9211242F933F934F935F936F9396
:100560007F938F939F93AF93BF93EF93FF9389E410
:1005700091E00E940201FF91EF91BF91AF919F9195
:100580008F917F916F915F914F913F912F910F903C
:100590000FBE0F901F9018951F920F920FB60F92DB
:1005A00011242F938F939F93EF93FF93E091590121
:1005B000F0915A018081E0915F01F091600182FD2C
:1005C0001BC09081809162018F5F8F7320916301C6
:1005D000821741F0E0916201F0E0E75BFE4F958FFA
:1005E00080936201FF91EF919F918F912F910F90D6
:1005F0000FBE0F901F9018958081F4CF1F920F921D
:100600000FB60F9211242F933F938F939F93AF9325
:10061000BF938091350190913601A0913701B0913F
:1006200038013091340123E0230F2D3758F501961E
:10063000A11DB11D209334018093350190933601A3
:10064000A0933701B09338018091390190913A011C
:10065000A0913B01B0913C010196A11DB11D809379
:10066000390190933A01A0933B01B0933C01BF91B3
:10067000AF919F918F913F912F910F900FBE0F904F
:100680001F90189526E8230F0296A11DB11DD2CF09
:10069000789484B5826084BD84B5816084BD85B55D
:1006A000826085BD85B5816085BD80916E00816069
:1006B00080936E001092810080918100826080930F
:1006C0008100809181008160809381008091800011
:1006D0008160809380008091B10084608093B1003C
:1006E0008091B00081608093B00080917A00846036
:1006F00080937A0080917A00826080937A00809162
:100700007A00816080937A0080917A00806880937B
:100710007A001092C100E0915901F0915A0182E0F3
:100720008083E0915501F09156011082E0915701CC
:10073000F09158018FEC808310926101E0915D018E
:10074000F0915E0186E08083E0915B01F0915C01B5
:10075000808180618083E0915B01F0915C01808108
:1007600088608083E0915B01F0915C01808180680A
:100770008083E0915B01F0915C0180818F7D8083BB
:1007800080E480937C0080917A00806480937A007A
:1007900080917A0086FDFCCF80917800609179008D
:1007A000762F682F072E000C880B990B61157105A9
:1007B0008105910511F00E94C40589E191E00E9434
:1007C000030286E191E00E94030268E873E180E0A1
:1007D00090E00E94D101412C512C32014A9431E722
:1007E000232E312C4CE7E42EF12C50EAC52ED12CCF
:1007F00083EA90E00E947101809047019090480147
:10080000092C000CAA08BB084AE0C501B401B7FED8
:100810000DC06DE289E491E00E94240166277727EC
:10082000CB01681979098A099B094AE00E941002E4
:1008300086E191E00E940302109246011092450168
:1008400001E082E5A82EB12C98E4892E912C8091AC
:10085000450190914601803A910569F190F4892B08
:10086000C9F0123008F479C080E090E0892B09F4D7
:10087000BFCF0E94EE00882309F4BACF0E94000087
:10088000B7CF843A910509F449C08A3A910549F7EE
:1008900013E0EACF8CE890E00E94710186E191E0DC
:1008A0000E9403020093430182E080933F01109273
:1008B000420110924101809141019091420188349E
:1008C000910509F440C038F4892BA1F0D23058F4D6
:1008D000DD23E9F11AC08235910509F44EC0873550
:1008E0009105A1F7D3E08AEA90E0909346018093C6
:1008F0004501CECF1092440180914401803108F02F
:1009000042C0909242018092410181E491E00E94B4
:10091000540210923E0110923D01D1E080913D01C0
:1009200090913E018C37910509F45AC098F50097D3
:10093000C9F18137910509F441C0C23008F0BBCF3D
:10094000C11148C033C0B0924201A0924101D0927F
:100950004601C0924501D0E010E08091470190919E
:1009600048010196909348018093470160ED77E03C
:1009700080E090E00E94D1016ACF809144018F5FB6
:1009800080934401B9CF87E590E090934201809332
:100990004101A8CF8338910569F18A38910569F63C
:1009A000C3E089CF30923E0120923D0184EA90E07D
:1009B0009093460180934501C0E0CECF0E9475051B
:1009C000A30192010E94CD0560934001F0923E0187
:1009D000E0923D018DE391E00E945402C1E09ECF80
:1009E000809140018C35F0F283E890E090933E01D5
:1009F00080933D01C2E05FCFE9E4F1E0138212820F
:100A000088EE93E0A0E0B0E084839583A683B7836B
:100A100088E091E09183808385EC90E095878487DE
:100A200084EC90E09787868780EC90E0918B808BB8
:100A300081EC90E0938B828B82EC90E0958B848BA1
:100A400086EC90E0978B868B118E128E138E148E0F
:100A500008958F929F92AF92BF92CF92DF92EF92C2
:100A6000FF92CF93DF93EC01688179818A819B812A
:100A7000611571058105910521F464E279ED8BE53D
:100A800097E02DE133EF41E050E00E94CD054901B0
:100A90005A019B01AC01A7EAB1E40E94EC056B018D
:100AA0007C01ACEEB4EFA50194010E94FA05C60EDC
:100AB000D71EE81EF91EF7FE06C081E0C81AD1084D
:100AC000E10880E8F80AC882D982EA82FB82C7017D
:100AD000B6019F77DF91CF91FF90EF90DF90CF909D
:100AE000BF90AF909F908F9008958F929F92AF92FA
:100AF000BF92CF92DF92EF92FF92609100017091CE
:100B00000101809102019091030161157105810538
:100B1000910521F464E279ED8BE597E02DE133EF67
:100B200041E050E00E94CD0549015A019B01AC0112
:100B3000A7EAB1E40E94EC056B017C01ACEEB4EFD6
:100B4000A50194010E94FA05C60ED71EE81EF91EE3
:100B5000F7FE06C081E0C81AD108E10880E8F80A6B
:100B6000C0920001D0920101E0920201F0920301D3
:100B7000C701B6019F77FF90EF90DF90CF90BF90B5
:100B8000AF909F908F900895609300017093010142
:100B900080930201909303010895052E97FB1EF4A4
:100BA00000940E94E40557FD07D00E94FF0507FC52
:100BB00003D04EF40C94E405509540953095219562
:100BC0003F4F4F4F5F4F0895909580957095619579
:100BD0007F4F8F4F9F4F08950E942106A59F900D34
:100BE000B49F900DA49F800D911D11240895B7FF0F
:100BF0000C94EC050E94EC05821B930B0895A1E276
:100C00001A2EAA1BBB1BFD010DC0AA1FBB1FEE1F86
:100C1000FF1FA217B307E407F50720F0A21BB30BD1
:100C2000E40BF50B661F771F881F991F1A9469F74D
:100C300060957095809590959B01AC01BD01CF01A9
:100C40000895A29FB001B39FC001A39F700D811DA5
:100C50001124911DB29F700D811D1124911D0895C5
:100C6000EE0FFF1F0590F491E02D0994F894FFCF4B
:100C7000010000000000000024018400B1008C018C
:100C8000E200C000D4000D0A00446F6E6520736559
:100C90007475702C2077616974696E6720352073D4
:040CA00065632E005A
:00000001FF
