:100000000C9435000C945D000C945D000C945D0024
:100010000C945D000C945D000C945D000C945D00EC
:100020000C945D000C945D000C945D000C945D00DC
:100030000C945D000C945D000C945D000C945D00CC
:100040000C9476030C945D000C9444030C941E03F2
:100050000C945D000C945D000C945D000C945D00AC
:100060000C945D000C945D00DD0411241FBECFEFE5
:10007000D8E0DEBFCDBF11E0A0E0B1E0E2E3FCE0FC
:1000800002C005900D92A63FB107D9F722E0A6EF76
:10009000B1E001C01D92AA3AB207E1F710E0C5E352
:1000A000D0E004C02197FE010E941106C433D1079D
:1000B000C9F70E94C0030C9417060C940000AF927D
:1000C000BF92CF92DF92EF92FF920F931F93CF9345
:1000D000DF936C017B018B01040F151FEB015E01A7
:1000E000AE18BF08C017D10759F06991D601ED913C
:1000F000FC910190F081E02DC6010995892B79F7DB
:10010000C501DF91CF911F910F91FF90EF90DF908C
:10011000CF90BF90AF900895FC01538D448D252F53
:1001200030E0842F90E0821B930B541710F0CF9691
:10013000089501970895FC01918D828D981761F0C3
:10014000A28DAE0FBF2FB11D5D968C91928D9F5FDA
:100150009F73928F90E008958FEF9FEF0895FC01B9
:10016000918D828D981731F0828DE80FF11D858D6C
:1001700090E008958FEF9FEF0895FC01918D228DFF
:10018000892F90E0805C9F4F821B91098F73992784
:1001900008958DE092E00E94BD0021E0892B09F4D2
:1001A00020E0822F089580E090E0892B29F00E94C2
:1001B000C90081110C9400000895FC01A48DA80FC2
:1001C000B92FB11DA35ABF4F2C91848D90E0019699
:1001D0008F739927848FA689B7892C93A089B189B9
:1001E0008C91837080648C93938D848D981306C05A
:1001F0000288F389E02D80818F7D80830895EF92BE
:10020000FF920F931F93CF93DF93EC0181E0888FD0
:100210009B8D8C8D98131AC0E889F989808185FFA0
:1002200015C09FB7F894EE89FF896083E889F98942
:1002300080818370806480839FBF81E090E0DF9144
:10024000CF911F910F91FF90EF900895F62E0B8D97
:1002500010E00F5F1F4F0F731127E02E8C8D8E1152
:100260000CC00FB607FCFACFE889F989808185FFB9
:10027000F5CFCE010E94DD00F1CFEB8DEC0FFD2F0D
:10028000F11DE35AFF4FF0829FB7F8940B8FEA8974
:10029000FB8980818062CFCFCF93DF93EC01888D83
:1002A0008823B9F0AA89BB89E889F9898C9185FDF1
:1002B00003C0808186FD0DC00FB607FCF7CF8C917F
:1002C00085FFF2CF808185FFEDCFCE010E94DD005A
:1002D000E9CFDF91CF9108953FB7F8948091FB016A
:1002E0009091FC01A091FD01B091FE0126B5A89B63
:1002F00005C02F3F19F00196A11DB11D3FBFBA2FB8
:10030000A92F982F8827BC01CD01620F711D811D77
:10031000911D42E0660F771F881F991F4A95D1F7FC
:1003200008958F929F92AF92BF92CF92DF92EF92F9
:10033000FF924B015C010E946C016B017C010E94E9
:100340006C016C197D098E099F09683E7340810517
:100350009105A8F321E0821A9108A108B10888EE5E
:10036000C80E83E0D81EE11CF11C81149104A10485
:10037000B10429F7FF90EF90DF90CF90BF90AF903E
:100380009F908F900895FC0101900020E9F731972C
:10039000AF01481B590BBC018DE092E00C945F004B
:1003A0008F929F92AF92BF920F931F93CF93DF9341
:1003B000CDB7DEB7A1970FB6F894DEBF0FBECDBFA5
:1003C00019A2423008F44AE08E010F5D1F4F842EBF
:1003D000912CB12CA12CA50194010E94E005E62FDF
:1003E000B901CA01EA30F4F4E05DD801EE938D0161
:1003F000232B242B252B79F790E080E0109719F020
:10040000CD010E94C301A1960FB6F894DEBF0FBEC6
:10041000CDBFDF91CF911F910F91BF90AF909F9073
:100420008F900895E95CE1CF0C94C301CF93DF93E3
:100430000E94C301EC0186E191E00E94C3018C0F90
:100440009D1FDF91CF910895CF93DF93682F70E0C8
:1004500090E080E04AE00E94D001EC0186E191E06A
:100460000E94C3018C0F9D1FDF91CF910895CF9201
:10047000DF92EF92FF92CF93DF936C01990FEE081A
:10048000FF08F7FE19C06DE28DE092E00E94FF00C8
:10049000EC0166277727CB016C197D098E099F092E
:1004A0004AE00E94D0018C0F9D1FDF91CF91FF90F9
:1004B000EF90DF90CF9008954AE0C701B601DF9139
:1004C000CF91FF90EF90DF90CF900C94D0010F93DD
:1004D0001F93CF93C82F8B0180910B0290910C0238
:1004E0000E94370289E191E0CC23B9F088E291E0E3
:1004F000C13099F087E391E0C23079F085E491E072
:10050000C33059F060F082E591E00E9414028C2F14
:1005100090E00E94370280E691E00E941402F80108
:10052000628170E090E080E04AE00E94D00183E6C2
:1005300091E00E941402F8018481CF911F910F91E4
:100540000C942402CF93DF93EC01888199818A3641
:10055000910509F461C030F4009769F08236910585
:10056000A1F130C08E36910509F45DC08237910546
:10057000C1F783E027C01B828B81853008F059C00A
:1005800080910B0290910C02019690930C02809343
:100590000B020E9437028CE691E00E9414026A81ED
:1005A00070E090E080E04AE00E94D00189E791E0AD
:1005B0000E9414028B810E94240282E690E09983BB
:1005C000888380E0DF91CF9108950E9456052FEF38
:1005D00030E040E050E00E94AE056C8380910B0259
:1005E00090910C020E9437028CE691E00E94140266
:1005F0006A8170E090E080E04AE00E94D00185E8E6
:1006000091E00E9414028C810E9424028AE690E00C
:100610009983888381E0D6CF8C81803C30F08EE650
:1006200090E09983888382E0CDCF8B818F5F8B832D
:10063000A3CF82E790E0998388839BCF1F920F928C
:100640000FB60F9211242F933F934F935F936F93A5
:100650007F938F939F93AF93BF93EF93FF938DE01F
:1006600092E00E94DD00FF91EF91BF91AF919F91C9
:100670008F917F916F915F914F913F912F910F904B
:100680000FBE0F901F9018951F920F920FB60F92EA
:1006900011242F938F939F93EF93FF93E0911D026B
:1006A000F0911E028081E0912302F091240282FDEC
:1006B0001BC09081809126028F5F8F73209127024B
:1006C000821741F0E0912602F0E0E35FFD4F958F45
:1006D00080932602FF91EF919F918F912F910F9020
:1006E0000FBE0F901F9018958081F4CF1F920F922C
:1006F0000FB60F9211242F933F938F939F93AF9335
:10070000BF938091F7019091F801A091F901B09108
:10071000FA013091F60123E0230F2D3758F50196A9
:10072000A11DB11D2093F6018093F7019093F8016C
:10073000A093F901B093FA018091FB019091FC0123
:10074000A091FD01B091FE010196A11DB11D809304
:10075000FB019093FC01A093FD01B093FE01BF91BA
:10076000AF919F918F913F912F910F900FBE0F905E
:100770001F90189526E8230F0296A11DB11DD2CF18
:10078000789484B5826084BD84B5816084BD85B56C
:10079000826085BD85B5816085BD80916E00816078
:1007A00080936E001092810080918100826080931E
:1007B0008100809181008160809381008091800020
:1007C0008160809380008091B10084608093B1004B
:1007D0008091B00081608093B00080917A00846045
:1007E00080937A0080917A00826080937A00809171
:1007F0007A00816080937A0080917A00806880938B
:100800007A001092C100E0911D02F0911E0282E078
:100810008083E0911902F0911A021082E0911B028C
:10082000F0911C028FEC808310922502E09121024E
:10083000F091220286E08083E0911F02F091200275
:10084000808180618083E0911F02F091200280818D
:1008500088608083E0911F02F0912002808180688F
:100860008083E0911F02F091200280818F7D808340
:1008700080E480937C0080917A00806480937A0089
:1008800080917A0086FDFCCF80917800609179009C
:10089000762F682F072E000C880B990B61157105B8
:1008A0008105910511F00E94A5058EE991E00E9455
:1008B000160268EE73E080E090E00E949101D1E0C2
:1008C00012E080E0E82E80E0F82E89EB91E00E94B3
:1008D000140280910B0290910C020E94370286E173
:1008E00091E00E94C3011092070210920602D09379
:1008F00008021092090210920A021092020210924B
:1009000001021093030210920402109205028091DA
:100910000B0290910C020E94370287EC91E00E943A
:10092000160286E092E00E94A202C82F8093000285
:1009300081E092E00E94A2028093FF01823050F198
:10094000C23040F180910B0290910C020E9437025C
:1009500081EE91E00E94160266E072E08091000252
:100960000E94670261E072E08091FF010E946702CD
:1009700068E57BE180E090E00E949101E114F104E0
:1009800009F4A3CF0E94C900882309F49ECF0E94D6
:1009900000009BCF66E072E0809100020E94670237
:1009A00061E072E08091FF010E94670268EB7BE0EA
:1009B00080E090E00E949101AACFEDE0F2E0138286
:1009C000128288EE93E0A0E0B0E084839583A68352
:1009D000B78388E091E09183808385EC90E09587F0
:1009E000848784EC90E09787868780EC90E0918BF9
:1009F000808B81EC90E0938B828B82EC90E0958BE6
:100A0000848B86EC90E0978B868B118E128E138EE2
:100A1000148E08958F929F92AF92BF92CF92DF92E1
:100A2000EF92FF92CF93DF93EC01688179818A8105
:100A30009B81611571058105910521F464E279EDD1
:100A40008BE597E02DE133EF41E050E00E94AE05E9
:100A500049015A019B01AC01A7EAB1E40E94CD050E
:100A60006B017C01ACEEB4EFA50194010E94DB05A3
:100A7000C60ED71EE81EF91EF7FE06C081E0C81A92
:100A8000D108E10880E8F80AC882D982EA82FB82AC
:100A9000C701B6019F77DF91CF91FF90EF90DF9074
:100AA000CF90BF90AF909F908F9008958F929F921C
:100AB000AF92BF92CF92DF92EF92FF9260910001CE
:100AC00070910101809102019091030161157105FE
:100AD0008105910521F464E279ED8BE597E02DE144
:100AE00033EF41E050E00E94AE0549015A019B01FD
:100AF000AC01A7EAB1E40E94CD056B017C01ACEE2C
:100B0000B4EFA50194010E94DB05C60ED71EE81EB6
:100B1000F91EF7FE06C081E0C81AD108E10880E896
:100B2000F80AC0920001D0920101E0920201F09215
:100B30000301C701B6019F77FF90EF90DF90CF9040
:100B4000BF90AF909F908F90089560930001709335
:100B5000010180930201909303010895052E97FBF4
:100B60001EF400940E94C50557FD07D00E94E005C1
:100B700007FC03D04EF40C94C50550954095309574
:100B800021953F4F4F4F5F4F0895909580957095F9
:100B900061957F4F8F4F9F4F08950E940206A59F3A
:100BA000900DB49F900DA49F800D911D1124089568
:100BB000B7FF0C94CD050E94CD05821B930B0895C1
:100BC000A1E21A2EAA1BBB1BFD010DC0AA1FBB1F51
:100BD000EE1FFF1FA217B307E407F50720F0A21BC3
:100BE000B30BE40BF50B661F771F881F991F1A9430
:100BF00069F760957095809590959B01AC01BD015A
:100C0000CF010895A29FB001B39FC001A39F700DB3
:100C1000811D1124911DB29F700D811D1124911D04
:100C20000895EE0FFF1F0590F491E02D0994F894BC
:020C3000FFCFF4
:100C32000100000000000000FF005F008C004C017A
:100C4200BD009B00AF000D0A00202D2050545F57BD
:100C5200414954494E472000202D2050545F5949A4
:100C6200454C4445442000202D2050545F455849AE
:100C72005445442000202D2050545F454E444544A5
:100C82002000202D2050545F4552524F5220280000
:100C92002920002076616C75653A2000202D20699C
:100CA2006E7374616E636520002077616974206FD2
:100CB2006E65204000207969656C642072616E6403
:100CC2006F6D28302C2032353529203D2000446FAD
:100CD2006E652073657475702C2077616974696E16
:100CE200672031207365632E00766F6964206C6F14
:100CF2006F7028293A2000202D2070726F746F7057
:100D0200756D702069735F72756E6E696E672829E2
:100D120000202D20656E64206F662070726F746FE4
:060D220070756D70000009
:00000001FF
