:100000000C9435000C945D000C945D000C945D0024
:100010000C945D000C945D000C945D000C945D00EC
:100020000C945D000C945D000C945D000C945D00DC
:100030000C945D000C945D000C945D000C945D00CC
:100040000C9438030C945D000C9406030C94E002AD
:100050000C945D000C945D000C945D000C945D00AC
:100060000C945D000C945D006C0411241FBECFEF56
:10007000D8E0DEBFCDBF12E0A0E0B1E0E0E5FBE0FC
:1000800002C005900D92AE31B107D9F722E0AEE182
:10009000B2E001C01D92A63CB207E1F710E0C5E353
:1000A000D0E004C02197FE010E94A005C433D1070F
:1000B000C9F70E9482030C94A6050C940000AF922D
:1000C000BF92CF92DF92EF92FF920F931F93CF9345
:1000D000DF936C017B018B01040F151FEB015E01A7
:1000E000AE18BF08C017D10759F06991D601ED913C
:1000F000FC910190F081E02DC6010995892B79F7DB
:10010000C501DF91CF911F910F91FF90EF90DF908C
:10011000CF90BF90AF900895FC01538D448D252F53
:1001200030E0842F90E0821B930B541710F0CF9691
:10013000089501970895FC01918D828D981761F0C3
:10014000A28DAE0FBF2FB11D5D968C91928D9F5FDA
:100150009F73928F90E008958FEF9FEF0895FC01B9
:10016000918D828D981731F0828DE80FF11D858D6C
:1001700090E008958FEF9FEF0895FC01918D228DFF
:10018000892F90E0805C9F4F821B91098F73992784
:10019000089589E292E00E94BD0021E0892B09F4D4
:1001A00020E0822F089580E090E0892B29F00E94C2
:1001B000C90081110C9400000895FC01A48DA80FC2
:1001C000B92FB11DA35ABF4F2C91848D90E0019699
:1001D0008F739927848FA689B7892C93A089B189B9
:1001E0008C91837080648C93938D848D981306C05A
:1001F0000288F389E02D80818F7D80830895EF92BE
:10020000FF920F931F93CF93DF93EC0181E0888FD0
:100210009B8D8C8D98131AC0E889F989808185FFA0
:1002200015C09FB7F894EE89FF896083E889F98942
:1002300080818370806480839FBF81E090E0DF9144
:10024000CF911F910F91FF90EF900895F62E0B8D97
:1002500010E00F5F1F4F0F731127E02E8C8D8E1152
:100260000CC00FB607FCFACFE889F989808185FFB9
:10027000F5CFCE010E94DD00F1CFEB8DEC0FFD2F0D
:10028000F11DE35AFF4FF0829FB7F8940B8FEA8974
:10029000FB8980818062CFCFCF93DF93EC01888D83
:1002A0008823B9F0AA89BB89E889F9898C9185FDF1
:1002B00003C0808186FD0DC00FB607FCF7CF8C917F
:1002C00085FFF2CF808185FFEDCFCE010E94DD005A
:1002D000E9CFDF91CF9108953FB7F8948091230241
:1002E00090912402A0912502B091260226B5A89BE8
:1002F00005C02F3F19F00196A11DB11D3FBFBA2FB8
:10030000A92F982F8827BC01CD01620F711D811D77
:10031000911D42E0660F771F881F991F4A95D1F7FC
:1003200008958F929F92AF92BF92CF92DF92EF92F9
:10033000FF924B015C010E946C016B017C010E94E9
:100340006C016C197D098E099F09683E7340810517
:100350009105A8F321E0821A9108A108B10888EE5E
:10036000C80E83E0D81EE11CF11C81149104A10485
:10037000B10429F7FF90EF90DF90CF90BF90AF903E
:100380009F908F900895FC0101900020E9F731972C
:10039000AF01481B590BBC0189E292E00C945F004D
:1003A0008F929F92AF92BF920F931F93CF93DF9341
:1003B000CDB7DEB7A1970FB6F894DEBF0FBECDBFA5
:1003C00019A2423008F44AE08E010F5D1F4F842EBF
:1003D000912CB12CA12CA50194010E946F05E62F50
:1003E000B901CA01EA30F4F4E05DD801EE938D0161
:1003F000232B242B252B79F790E080E0109719F020
:10040000CD010E94C301A1960FB6F894DEBF0FBEC6
:10041000CDBFDF91CF911F910F91BF90AF909F9073
:100420008F900895E95CE1CFCF92DF92EF92FF9237
:10043000CF93DF936B017C016DE289E292E00E9431
:10044000FF00EC0166277727CB016C197D098E0927
:100450009F094AE00E94D0018C0F9D1FDF91CF9130
:10046000FF90EF90DF90CF900895CF93DF930E949D
:10047000C301EC0186E191E00E94C3018C0F9D1F36
:10048000DF91CF910895CF93DF93C0912702D09150
:100490002802C332D10509F460C008F5209759F14C
:1004A000C231D105C1F1C1158FEFD80710F4C4E0F6
:1004B000D0E082E691E00E94C3016C2F70E090E0F2
:1004C00080E04AE00E94D00186E191E00E94C301F1
:1004D00083E290E090932802809327022DC0CE32D1
:1004E000D105C9F1CF3FDC07F1F68EE791E00E941C
:1004F0003502CFEF21C089E191E00E94350281E30E
:1005000091E00E94350282E190E09093280280936E
:100510002702C0E011C00E94E50426E030E040E080
:1005200050E00E943D05623059F486E190E09093DE
:10053000280280932702C2E08C2FDF91CF9108958B
:10054000633019F487E09FEFE0CF6430C1F68CE4AC
:1005500091E00E943502C3E0EFCFC4E0EDCFCF932E
:10056000C82F88E991E0CC2321F0C13089F483EAD7
:1005700091E00E94C30188ED91E00E94C3018AEDE1
:1005800091E00E94C30186E191E0CF910C94C301F8
:100590008EEA91E0C33069F387EB91E0C23049F312
:1005A00081EC91E0CF3F29F38EEC91E00E94C301F2
:1005B0006C2F70E090E080E04AE00E94D001DBCF39
:1005C0001F920F920FB60F9211242F933F934F93C8
:1005D0005F936F937F938F939F93AF93BF93EF93AB
:1005E000FF9389E292E00E94DD00FF91EF91BF91BD
:1005F000AF919F918F917F916F915F914F913F91BB
:100600002F910F900FBE0F901F9018951F920F9271
:100610000FB60F9211242F938F939F93EF93FF9315
:10062000E0913902F0913A028081E0913F02F0912D
:10063000400282FD1BC09081809142028F5F8F73C8
:1006400020914302821741F0E0914202F0E0E75D21
:10065000FD4F958F80934202FF91EF919F918F9173
:100660002F910F900FBE0F901F9018958081F4CF9F
:100670001F920F920FB60F9211242F933F938F93D7
:100680009F93AF93BF9380911F0290912002A091FE
:100690002102B091220230911E0223E0230F2D3758
:1006A00058F50196A11DB11D20931E0280931F02D3
:1006B00090932002A0932102B09322028091230202
:1006C00090912402A0912502B09126020196A11DCD
:1006D000B11D8093230290932402A0932502B0932E
:1006E0002602BF91AF919F918F913F912F910F90D3
:1006F0000FBE0F901F90189526E8230F0296A11D9C
:10070000B11DD2CF789484B5826084BD84B58160F8
:1007100084BD85B5826085BD85B5816085BD8091CC
:100720006E00816080936E00109281008091810044
:10073000826080938100809181008160809381003C
:10074000809180008160809380008091B1008460FE
:100750008093B1008091B00081608093B00080915F
:100760007A00846080937A0080917A00826080931E
:100770007A0080917A00816080937A0080917A007B
:10078000806880937A001092C100E0913902F09164
:100790003A0282E08083E0913502F09136021082C5
:1007A000E0913702F09138028FEC80831092410281
:1007B000E0913D02F0913E0286E08083E0913B02B1
:1007C000F0913C02808180618083E0913B02F09156
:1007D0003C02808188608083E0913B02F0913C0282
:1007E000808180688083E0913B02F0913C028081AF
:1007F0008F7D808380E480937C0080917A00806488
:1008000080937A0080917A0086FDFCCF80917800F9
:1008100060917900762F682F072E000C880B990BBA
:10082000611571058105910511F00E9434058BEE6B
:1008300091E00E94350260ED77E080E090E00E9458
:100840009101CFEFDFEF00E010E086E092E00E9440
:10085000350210922802109227020E944302823031
:1008600048F40E94AF0268EE73E080E090E00E94DE
:100870009101F3CF0E94AF0268EE73E080E090E058
:100880000E949101D0932802C09327020E94430244
:10089000823048F40E94AF0268EE73E080E090E09E
:1008A0000E949101F3CF0E94AF0268EE73E080E0F6
:1008B00090E00E94910160ED77E080E090E00E947E
:1008C00091010115110509F20E94C900882309F45C
:1008D000BCCF0E940000B9CFE9E2F2E0138212829D
:1008E00088EE93E0A0E0B0E084839583A683B7838D
:1008F00088E091E09183808385EC90E09587848700
:1009000084EC90E09787868780EC90E0918B808BD9
:1009100081EC90E0938B828B82EC90E0958B848BC2
:1009200086EC90E0978B868B118E128E138E148E30
:1009300008958F929F92AF92BF92CF92DF92EF92E3
:10094000FF92CF93DF93EC01688179818A819B814B
:10095000611571058105910521F464E279ED8BE55E
:1009600097E02DE133EF41E050E00E943D05490161
:100970005A019B01AC01A7EAB1E40E945C056B013E
:100980007C01ACEEB4EFA50194010E946A05C60E8D
:10099000D71EE81EF91EF7FE06C081E0C81AD1086E
:1009A000E10880E8F80AC882D982EA82FB82C7019E
:1009B000B6019F77DF91CF91FF90EF90DF90CF90BE
:1009C000BF90AF909F908F9008958F929F92AF921B
:1009D000BF92CF92DF92EF92FF92609100017091EF
:1009E000010180910201909103016115710581055A
:1009F000910521F464E279ED8BE597E02DE133EF89
:100A000041E050E00E943D0549015A019B01AC01C3
:100A1000A7EAB1E40E945C056B017C01ACEEB4EF87
:100A2000A50194010E946A05C60ED71EE81EF91E94
:100A3000F7FE06C081E0C81AD108E10880E8F80A8C
:100A4000C0920001D0920101E0920201F0920301F4
:100A5000C701B6019F77FF90EF90DF90CF90BF90D6
:100A6000AF909F908F900895609300017093010163
:100A700080930201909303010895052E97FB1EF4C5
:100A800000940E94540557FD07D00E946F0507FC93
:100A900003D04EF40C945405509540953095219513
:100AA0003F4F4F4F5F4F089590958095709561959A
:100AB0007F4F8F4F9F4F08950E949105A59F900DE6
:100AC000B49F900DA49F800D911D11240895B7FF30
:100AD0000C945C050E945C05821B930B0895A1E2B7
:100AE0001A2EAA1BBB1BFD010DC0AA1FBB1FEE1FA8
:100AF000FF1FA217B307E407F50720F0A21BB30BF3
:100B0000E40BF50B661F771F881F991F1A9469F76E
:100B100060957095809590959B01AC01BD01CF01CA
:100B20000895A29FB001B39FC001A39F700D811DC6
:100B30001124911DB29F700D811D1124911D0895E6
:100B4000EE0FFF1F0590F491E02D0994F894FFCF6C
:100B50000100000000000000FF005F008C004C015D
:100B6000BD009B00AF000D0A0050545F424547494D
:100B70004E28292070726F746F74687265616431D9
:100B80000050545F574149545F4F4E45282920700B
:100B9000726F746F746872656164310050545F45A0
:100BA0004E4445442070726F746F7468726561645E
:100BB000310050545F4341544348414E5928292045
:100BC00070726F746F746872656164313A0050546A
:100BD0005F46494E414C4C5928292070726F746F02
:100BE000746872656164310050545F5741495449DB
:100BF0004E470050545F5949454C444544005054B9
:100C00005F454E4445440050545F4558495445445F
:100C10000050545F46494E414C495A454400505497
:100C20005F4552524F523A002000766F696420743B
:100C3000657374315F72756E282900446F6E65208C
:100C400073657475702C2077616974696E672032E2
:100C5000207365632E00766F696420746573743148
:0E0C60005F72756E28292053544152540000D3
:00000001FF
