:100000000C9435000C945D000C945D000C945D0024
:100010000C945D000C945D000C945D000C945D00EC
:100020000C945D000C945D000C945D000C945D00DC
:100030000C945D000C945D000C945D000C945D00CC
:100040000C9489030C945D000C9457030C943103B9
:100050000C945D000C945D000C945D000C945D00AC
:100060000C945D000C945D00CB0411241FBECFEFF7
:10007000D8E0DEBFCDBF12E0A0E0B1E0EEE0FCE0F2
:1000800002C005900D92A233B107D9F722E0A2E396
:10009000B2E001C01D92AC3DB207E1F710E0C5E34C
:1000A000D0E004C02197FE010E94FF05C433D107B0
:1000B000C9F70E94D3030C9405060C940000AF927C
:1000C000BF92CF92DF92EF92FF920F931F93CF9345
:1000D000DF936C017B018B01040F151FEB015E01A7
:1000E000AE18BF08C017D10759F06991D601ED913C
:1000F000FC910190F081E02DC6010995892B79F7DB
:10010000C501DF91CF911F910F91FF90EF90DF908C
:10011000CF90BF90AF900895FC01538D448D252F53
:1001200030E0842F90E0821B930B541710F0CF9691
:10013000089501970895FC01918D828D981761F0C3
:10014000A28DAE0FBF2FB11D5D968C91928D9F5FDA
:100150009F73928F90E008958FEF9FEF0895FC01B9
:10016000918D828D981731F0828DE80FF11D858D6C
:1001700090E008958FEF9FEF0895FC01918D228DFF
:10018000892F90E0805C9F4F821B91098F73992784
:1001900008958FE392E00E94BD0021E0892B09F4CD
:1001A00020E0822F089580E090E0892B29F00E94C2
:1001B000C90081110C9400000895FC01A48DA80FC2
:1001C000B92FB11DA35ABF4F2C91848D90E0019699
:1001D0008F739927848FA689B7892C93A089B189B9
:1001E0008C91837080648C93938D848D981306C05A
:1001F0000288F389E02D80818F7D80830895EF92BE
:10020000FF920F931F93CF93DF93EC0181E0888FD0
:100210009B8D8C8D98131AC0E889F989808185FFA0
:1002200015C09FB7F894EE89FF896083E889F98942
:1002300080818370806480839FBF81E090E0DF9144
:10024000CF911F910F91FF90EF900895F62E0B8D97
:1002500010E00F5F1F4F0F731127E02E8C8D8E1152
:100260000CC00FB607FCFACFE889F989808185FFB9
:10027000F5CFCE010E94DD00F1CFEB8DEC0FFD2F0D
:10028000F11DE35AFF4FF0829FB7F8940B8FEA8974
:10029000FB8980818062CFCFCF93DF93EC01888D83
:1002A0008823B9F0AA89BB89E889F9898C9185FDF1
:1002B00003C0808186FD0DC00FB607FCF7CF8C917F
:1002C00085FFF2CF808185FFEDCFCE010E94DD005A
:1002D000E9CFDF91CF9108953FB7F894809137022D
:1002E00090913802A0913902B0913A0226B5A89BAC
:1002F00005C02F3F19F00196A11DB11D3FBFBA2FB8
:10030000A92F982F8827BC01CD01620F711D811D77
:10031000911D42E0660F771F881F991F4A95D1F7FC
:1003200008958F929F92AF92BF92CF92DF92EF92F9
:10033000FF924B015C010E946C016B017C010E94E9
:100340006C016C197D098E099F09683E7340810517
:100350009105A8F321E0821A9108A108B10888EE5E
:10036000C80E83E0D81EE11CF11C81149104A10485
:10037000B10429F7FF90EF90DF90CF90BF90AF903E
:100380009F908F900895FC0101900020E9F731972C
:10039000AF01481B590BBC018FE392E00C945F0046
:1003A0008F929F92AF92BF920F931F93CF93DF9341
:1003B000CDB7DEB7A1970FB6F894DEBF0FBECDBFA5
:1003C00019A2423008F44AE08E010F5D1F4F842EBF
:1003D000912CB12CA12CA50194010E94CE05E62FF1
:1003E000B901CA01EA30F4F4E05DD801EE938D0161
:1003F000232B242B252B79F790E080E0109719F020
:10040000CD010E94C301A1960FB6F894DEBF0FBEC6
:10041000CDBFDF91CF911F910F91BF90AF909F9073
:100420008F900895E95CE1CF0C94C301CF93DF93E3
:100430000E94C301EC0186E191E00E94C3018C0F90
:100440009D1FDF91CF910895CF92DF92EF92FF929F
:10045000CF93DF936C01990FEE08FF08F7FE19C0E8
:100460006DE28FE392E00E94FF00EC0166277727A0
:10047000CB016C197D098E099F094AE00E94D001C9
:100480008C0F9D1FDF91CF91FF90EF90DF90CF9069
:1004900008954AE0C701B601DF91CF91FF90EF9038
:1004A000DF90CF900C94D001CF93C82F80913B0266
:1004B00090913C020E94240289E191E0CC23E1F07A
:1004C00087E291E0C130C1F085E391E0C230A1F054
:1004D00082E491E0C33081F08EE491E0CF3F61F09F
:1004E000C43060F08EE591E00E9414028C2F90E001
:1004F0000E9424028BE791E00E9414028FE791E0B2
:100500000E9414028CE691E0CF910C941602CF93D6
:10051000DF93EC0180913B0290913C020E94240207
:100520008DE791E00E941402CE010E94140286E140
:1005300091E0DF91CF910C94C301CF93DF93C091F1
:100540003D02D0913E02C332D10509F488C0C8F4FF
:10055000C331D10519F1C032D105F1F0209709F06E
:1005600044C081E891E00E94870289E991E00E94FD
:10057000870283E190E090933E0280933D02C0E0C9
:100580001EC0CA32D10509F468C0CF3FDC0709F4A8
:100590005AC0C632D10549F5C3E011C00E944405D6
:1005A00026E030E040E050E00E949C05623059F4C3
:1005B00087E190E090933E0280933D02C2E08C2F51
:1005C000DF91CF910895633019F487E09FEFD3CF87
:1005D000643059F684EB91E00E94870280E290E05B
:1005E00090933E0280933D02D7CFC1158FEFD8077D
:1005F00010F4C4E0D0E080913B0290913C020E9454
:1006000024028DE791E00E9414028AEC91E00E949E
:10061000140289E691E00E9414026C2F70E090E0D1
:1006200080E04AE00E94D0018BE791E00E94140232
:1006300088E191E00E94160283E290E090933E02EE
:1006400080933D02BCCF85EE91E00E9487028AE252
:1006500090E090933E0280933D02CFEFB0CFC4E094
:10066000AECF1F920F920FB60F9211242F933F938C
:100670004F935F936F937F938F939F93AF93BF93AA
:10068000EF93FF938FE392E00E94DD00FF91EF91E3
:10069000BF91AF919F918F917F916F915F914F919A
:1006A0003F912F910F900FBE0F901F9018951F92A2
:1006B0000F920FB60F9211242F938F939F93EF9366
:1006C000FF93E0914F02F09150028081E09155023A
:1006D000F091560282FD1BC09081809158028F5F7D
:1006E0008F7320915902821741F0E0915802F0E097
:1006F000E15CFD4F958F80935802FF91EF919F91A0
:100700008F912F910F900FBE0F901F9018958081A1
:10071000F4CF1F920F920FB60F9211242F933F9395
:100720008F939F93AF93BF93809133029091340244
:10073000A0913502B09136023091320223E0230FAE
:100740002D3758F50196A11DB11D209332028093DB
:10075000330290933402A0933502B0933602809115
:10076000370290913802A0913902B0913A02019675
:10077000A11DB11D8093370290933802A0933902D6
:10078000B0933A02BF91AF919F918F913F912F917A
:100790000F900FBE0F901F90189526E8230F02961A
:1007A000A11DB11DD2CF789484B5826084BD84B57B
:1007B000816084BD85B5826085BD85B5816085BD5C
:1007C00080916E00816080936E0010928100809114
:1007D000810082608093810080918100816080939C
:1007E0008100809180008160809380008091B100C1
:1007F00084608093B1008091B00081608093B000EC
:1008000080917A00846080937A0080917A0082607F
:1008100080937A0080917A00816080937A00809141
:100820007A00806880937A001092C100E0914F02B4
:10083000F091500282E08083E0914B02F0914C02F3
:100840001082E0914D02F0914E028FEC8083109265
:100850005702E0915302F091540286E08083E091C8
:100860005102F0915202808180618083E0915102B7
:10087000F0915202808188608083E0915102F09172
:100880005202808180688083E0915102F09152028F
:1008900080818F7D808380E480937C0080917A00CA
:1008A000806480937A0080917A0086FDFCCF8091ED
:1008B000780060917900762F682F072E000C880B46
:1008C000990B611571058105910511F00E94930541
:1008D00086E191E00E94C3018FEF91E00E94160231
:1008E00068EE73E080E090E00E949101CFEFDFEFCF
:1008F00000E010E08AE192E00E94870210923E023E
:1009000010923D020E949D02823048F40E945402DF
:1009100068EE73E080E090E00E949101F3CF0E94C6
:10092000540268EE73E080E090E00E949101D09361
:100930003E02C0933D020E949D02823048F40E9414
:10094000540268EE73E080E090E00E949101F3CFE2
:100950000E94540268EE73E080E090E00E949101F2
:1009600080913B0290913C02019690933C028093CF
:100970003B0260ED77E080E090E00E94910101157C
:10098000110509F4B7CF0E94C900882309F4B2CF3A
:100990000E940000AFCFEFE3F2E01382128288EEF4
:1009A00093E0A0E0B0E084839583A683B78388E0DA
:1009B00091E09183808385EC90E09587848784EC37
:1009C00090E09787868780EC90E0918B808B81EC1C
:1009D00090E0938B828B82EC90E0958B848B86ECFD
:1009E00090E0978B868B118E128E138E148E089545
:1009F0008F929F92AF92BF92CF92DF92EF92FF922F
:100A0000CF93DF93EC01688179818A819B816115A5
:100A100071058105910521F464E279ED8BE597E09C
:100A20002DE133EF41E050E00E949C0549015A015D
:100A30009B01AC01A7EAB1E40E94BB056B017C01FC
:100A4000ACEEB4EFA50194010E94C905C60ED71EF5
:100A5000E81EF91EF7FE06C081E0C81AD108E108B9
:100A600080E8F80AC882D982EA82FB82C701B6010F
:100A70009F77DF91CF91FF90EF90DF90CF90BF9065
:100A8000AF909F908F9008958F929F92AF92BF9258
:100A9000CF92DF92EF92FF9260910001709101017D
:100AA0008091020190910301611571058105910505
:100AB00021F464E279ED8BE597E02DE133EF41E03D
:100AC00050E00E949C0549015A019B01AC01A7EA34
:100AD000B1E40E94BB056B017C01ACEEB4EFA50153
:100AE00094010E94C905C60ED71EE81EF91EF7FE26
:100AF00006C081E0C81AD108E10880E8F80AC0926F
:100B00000001D0920101E0920201F0920301C701BD
:100B1000B6019F77FF90EF90DF90CF90BF90AF909E
:100B20009F908F90089560930001709301018093CE
:100B30000201909303010895052E97FB1EF4009483
:100B40000E94B30557FD07D00E94CE0507FC03D0D5
:100B50004EF40C94B30550954095309521953F4F38
:100B60004F4F5F4F089590958095709561957F4F99
:100B70008F4F9F4F08950E94F005A59F900DB49F41
:100B8000900DA49F800D911D11240895B7FF0C9422
:100B9000BB050E94BB05821B930B0895A1E21A2E90
:100BA000AA1BBB1BFD010DC0AA1FBB1FEE1FFF1F11
:100BB000A217B307E407F50720F0A21BB30BE40B61
:100BC000F50B661F771F881F991F1A9469F76095A8
:100BD0007095809590959B01AC01BD01CF01089562
:100BE000A29FB001B39FC001A39F700D811D11246E
:100BF000911DB29F700D811D1124911D0895EE0F5E
:0E0C0000FF1F0590F491E02D0994F894FFCFAA
:100C0E000100000000000000FF005F008C004C019E
:100C1E00BD009B00AF000D0A00202D2050545F57E1
:100C2E00414954494E4700202D2050545F594945A3
:100C3E004C44454400202D2050545F45584954459E
:100C4E004400202D2050545F454E44454400202D35
:100C5E002050545F46494E414C495A454400202D80
:100C6E002050545F4552524F52202800766F6964CF
:100C7E002074657374315F72756E282900202D20E3
:100C8E000050545F424547494E28292070726F74B8
:100C9E006F746872656164310050545F57414954F6
:100CAE005F4F4E4528292070726F746F746872659D
:100CBE006164310050545F454E4445442070726F5C
:100CCE00746F746872656164310050545F434154AF
:100CDE004348414E5928292070726F746F746872A0
:100CEE00656164310050545F46494E414C4C592861
:100CFE00292070726F746F7468726561643100447C
:100D0E006F6E652073657475702C207761697469D8
:100D1E006E672031207365632E00766F69642074D0
:100D2E00657374315F72756E282920535441525485
:020D3E000000B3
:00000001FF
