:100000000C9435000C945D000C945D000C945D0024
:100010000C945D000C945D000C945D000C945D00EC
:100020000C945D000C945D000C945D000C945D00DC
:100030000C945D000C945D000C945D000C945D00CC
:100040000C9493020C945D000C9461020C943B029E
:100050000C945D000C945D000C945D000C945D00AC
:100060000C945D000C945D005A0411241FBECFEF68
:10007000D8E0DEBFCDBF11E0A0E0B1E0ECE2FBE0F4
:1000800002C005900D92AC39B107D9F722E0ACE976
:10009000B1E001C01D92A634B207E1F710E0C5E35C
:1000A000D0E004C02197FE010E948E05C433D10721
:1000B000C9F70E94DD020C9494050C940000AF92E5
:1000C000BF92CF92DF92EF92FF920F931F93CF9345
:1000D000DF936C017B018B01040F151FEB015E01A7
:1000E000AE18BF08C017D10759F06991D601ED913C
:1000F000FC910190F081E02DC6010995892B79F7DB
:10010000C501DF91CF911F910F91FF90EF90DF908C
:10011000CF90BF90AF900895FC01538D448D252F53
:1001200030E0842F90E0821B930B541710F0CF9691
:10013000089501970895FC01918D828D981761F0C3
:10014000A28DAE0FBF2FB11D5D968C91928D9F5FDA
:100150009F73928F90E008958FEF9FEF0895FC01B9
:10016000918D828D981731F0828DE80FF11D858D6C
:1001700090E008958FEF9FEF0895FC01918D228DFF
:10018000892F90E0805C9F4F821B91098F73992784
:10019000089589EA91E00E94BD0021E0892B09F4CD
:1001A00020E0822F089580E090E0892B29F00E94C2
:1001B000C90081110C9400000895FC01A48DA80FC2
:1001C000B92FB11DA35ABF4F2C91848D90E0019699
:1001D0008F739927848FA689B7892C93A089B189B9
:1001E0008C91837080648C93938D848D981306C05A
:1001F0000288F389E02D80818F7D80830895EF92BE
:10020000FF920F931F93CF93DF93EC0181E0888FD0
:100210009B8D8C8D98131AC0E889F989808185FFA0
:1002200015C09FB7F894EE89FF896083E889F98942
:1002300080818370806480839FBF81E090E0DF9144
:10024000CF911F910F91FF90EF900895F62E0B8D97
:1002500010E00F5F1F4F0F731127E02E8C8D8E1152
:100260000CC00FB607FCFACFE889F989808185FFB9
:10027000F5CFCE010E94DD00F1CFEB8DEC0FFD2F0D
:10028000F11DE35AFF4FF0829FB7F8940B8FEA8974
:10029000FB8980818062CFCFCF93DF93EC01888D83
:1002A0008823B9F0AA89BB89E889F9898C9185FDF1
:1002B00003C0808186FD0DC00FB607FCF7CF8C917F
:1002C00085FFF2CF808185FFEDCFCE010E94DD005A
:1002D000E9CFDF91CF9108953FB7F8948091A101C4
:1002E0009091A201A091A301B091A40126B5A89B71
:1002F00005C02F3F19F00196A11DB11D3FBFBA2FB8
:10030000A92F982F8827BC01CD01620F711D811D77
:10031000911D42E0660F771F881F991F4A95D1F7FC
:1003200008958F929F92AF92BF92CF92DF92EF92F9
:10033000FF920E946C014B015C0188EEC82E83E0A5
:10034000D82EE12CF12C0E946C01681979098A09D8
:100350009B09683E734081059105A8F321E0C21A0C
:10036000D108E108F10888EE880E83E0981EA11CF0
:10037000B11CC114D104E104F10429F7FF90EF90FE
:10038000DF90CF90BF90AF909F908F900895FC0129
:1003900001900020E9F73197AF01481B590BBC01D0
:1003A00089EA91E00C945F008F929F92AF92BF9286
:1003B0000F931F93CF93DF93CDB7DEB7A1970FB6FF
:1003C000F894DEBF0FBECDBF19A2423008F44AE058
:1003D0008E010F5D1F4F842E912CB12CA12CA501F5
:1003E00094010E945D05E62FB901CA01EA30F4F4D8
:1003F000E05DD801EE938D01232B242B252B79F77B
:1004000090E080E0109719F0CD010E94C701A196FD
:100410000FB6F894DEBF0FBECDBFDF91CF911F9115
:100420000F91BF90AF909F908F900895E95CE1CFBE
:10043000CF92DF92EF92FF92CF93DF936B017C011B
:100440006DE289EA91E00E94FF00EC0166277727C0
:10045000CB016C197D098E099F094AE00E94D401E5
:100460008C0F9D1FDF91CF91FF90EF90DF90CF9089
:1004700008950C94C7011F920F920FB60F9211248A
:100480002F933F934F935F936F937F938F939F939C
:10049000AF93BF93EF93FF9389EA91E00E94DD0051
:1004A000FF91EF91BF91AF919F918F917F916F914C
:1004B0005F914F913F912F910F900FBE0F901F9022
:1004C00018951F920F920FB60F9211242F938F93AE
:1004D0009F93EF93FF93E091B901F091BA0180816E
:1004E000E091BF01F091C00182FD1BC0908180911D
:1004F000C2018F5F8F732091C301821741F0E09199
:10050000C201F0E0E755FE4F958F8093C201FF9145
:10051000EF919F918F912F910F900FBE0F901F9091
:1005200018958081F4CF1F920F920FB60F9211246D
:100530002F933F938F939F93AF93BF9380919D0190
:1005400090919E01A0919F01B091A00130919C01DA
:1005500023E0230F2D3758F50196A11DB11D2093DF
:100560009C0180939D0190939E01A0939F01B09365
:10057000A0018091A1019091A201A091A301B0914D
:10058000A4010196A11DB11D8093A1019093A20128
:10059000A093A301B093A401BF91AF919F918F91BC
:1005A0003F912F910F900FBE0F901F90189526E846
:1005B000230F0296A11DB11DD2CF789484B582601D
:1005C00084BD84B5816084BD85B5826085BD85B5F7
:1005D000816085BD80916E00816080936E00109275
:1005E00081008091810082608093810080918100F0
:1005F0008160809381008091800081608093800081
:100600008091B10084608093B1008091B0008160DE
:100610008093B00080917A00846080937A0080910A
:100620007A00826080937A0080917A008160809362
:100630007A0080917A00806880937A001092C100DD
:10064000E091B901F091BA0182E08083E091B501B7
:10065000F091B6011082E091B701F091B8018FECF2
:1006600080831092C101E091BD01F091BE0186E04E
:100670008083E091BB01F091BC0180818061808327
:10068000E091BB01F091BC01808188608083E091A2
:10069000BB01F091BC01808180688083E091BB0147
:1006A000F091BC0180818F7D808380E480937C0009
:1006B00080917A00806480937A0080917A0086FD30
:1006C000FCCF8091780060917900762F682F072EFB
:1006D000000C880B990B611571058105910511F0CE
:1006E0000E94220586E191E00E94C70189E191E024
:1006F0000E94C70186E191E00E94C7010E9491011A
:100700001092A6011092A5018FE3882E912CA12CA6
:10071000B12C90E0692E90E0792E23E1222E312C2D
:1007200039E0E32EF12CCC24CA94DC2CC091A70133
:10073000D091A8012196D093A801C093A7010E944F
:1007400091016091A5017091A6016930710509F4CC
:100750008AC0B0F561157105E1F161158FEF780779
:1007600010F464E070E0562EBE01DD0F880B990B8B
:1007700097FF86C00E94180284E391E00E9439022C
:1007800088E391E00E9439028BE891E00E943902EF
:10079000652D70E090E080E04AE00E94D40182E59F
:1007A00091E00E94390288E191E00E94C70186E150
:1007B00091E00E94C7013092A6012092A50107C0D6
:1007C00013E06F30710551F06331710531F61FEFA1
:1007D00005C0F092A601E092A50110E0C091A5012C
:1007E000D091A6016091A7017091A801072E000C7D
:1007F000880B990B97FF48C00E941802209751F070
:1008000084E591E00E943902BE0190E080E04AE078
:100810000E94D40186E591E0112321F01330C1F547
:1008200084E691E00E94390286E391E00E94390259
:100830008EE891E00E94390286E191E00E94C701B2
:1008400012501D3F20F4D092A601C092A501611460
:10085000710409F46BCF0E94C900882309F466CFA4
:100860000E94000063CF0E94D304A50194010E945E
:100870002B056C5F71097093A6016093A501ADCF44
:100880004AE00E94D40178CF4AE00E94D401B6CF5A
:1008900080E791E01F3F31F280E891E00E94390249
:1008A000612F70E090E080E04AE00E94D40182E590
:1008B00091E0B8CFE9EAF1E01382128288EE93E08A
:1008C000A0E0B0E084839583A683B78388E091E0BD
:1008D0009183808385EC90E09587848784EC90E019
:1008E0009787868780EC90E0918B808B81EC90E0FD
:1008F000938B828B82EC90E0958B848B86EC90E0DE
:10090000978B868B118E128E138E148E08958F9274
:100910009F92AF92BF92CF92DF92EF92FF92CF93CE
:10092000DF93EC01688179818A819B816115710572
:100930008105910521F464E279ED8BE597E02DE1E5
:1009400033EF41E050E00E942B0549015A019B0121
:10095000AC01A7EAB1E40E944A056B017C01ACEE50
:10096000B4EFA50194010E945805C60ED71EE81EDB
:10097000F91EF7FE06C081E0C81AD108E10880E838
:10098000F80AC882D982EA82FB82C701B6019F7742
:10099000DF91CF91FF90EF90DF90CF90BF90AF901D
:1009A0009F908F9008958F929F92AF92BF92CF9217
:1009B000DF92EF92FF9260910001709101018091AE
:1009C000020190910301611571058105910521F4E2
:1009D00064E279ED8BE597E02DE133EF41E050E003
:1009E0000E942B0549015A019B01AC01A7EAB1E421
:1009F0000E944A056B017C01ACEEB4EFA5019401A5
:100A00000E945805C60ED71EE81EF91EF7FE06C046
:100A100081E0C81AD108E10880E8F80AC092000114
:100A2000D0920101E0920201F0920301C701B601E8
:100A30009F77FF90EF90DF90CF90BF90AF909F9007
:100A40008F900895609300017093010180930201DB
:100A5000909303010895052E97FB1EF400940E94C5
:100A6000420557FD07D00E945D0507FC03D04EF4F8
:100A70000C94420550954095309521953F4F4F4F2E
:100A80005F4F089590958095709561957F4F8F4F3A
:100A90009F4F08950E947F05A59F900DB49F900DD4
:100AA000A49F800D911D11240895B7FF0C944A0551
:100AB0000E944A05821B930B0895A1E21A2EAA1BDD
:100AC000BB1BFD010DC0AA1FBB1FEE1FFF1FA217FE
:100AD000B307E407F50720F0A21BB30BE40BF50BFB
:100AE000661F771F881F991F1A9469F76095709584
:100AF000809590959B01AC01BD01CF010895A29F07
:100B0000B001B39FC001A39F700D811D1124911DE1
:100B1000B29F700D811D1124911D0895EE0FFF1FCE
:0C0B20000590F491E02D0994F894FFCFAB
:100B2C000100000000000000FF005F008C004C0181
:100B3C00BD009B00AF000D0A00446F6E652073650D
:100B4C007475702C2077616974696E67203120731D
:100B5C0065632E00202D200050545F4341544348C0
:100B6C00414E5928292070726F746F7468726561D8
:100B7C00640029003A00202D2050545F57414954FD
:100B8C00494E4700202D2050545F454E44454400AB
:100B9C00202D2050545F46494E414C495A45440043
:100BAC00202D2050545F4552524F522028003C209B
:0C0BBC0070726F746F7468726561640081
:00000001FF
