:100000000C9435000C945D000C945D000C945D0024
:100010000C945D000C945D000C945D000C945D00EC
:100020000C945D000C945D000C945D000C945D00DC
:100030000C945D000C945D000C945D000C945D00CC
:100040000C9474030C945D000C9442030C941C03F8
:100050000C945D000C945D000C945D000C945D00AC
:100060000C945D000C945D00B20411241FBECFEF10
:10007000D8E0DEBFCDBF12E0A0E0B1E0ECEDFBE0E8
:1000800002C005900D92AA33B107D9F722E0AAE386
:10009000B2E001C01D92A43EB207E1F710E0C5E353
:1000A000D0E004C02197FE010E94E605C433D107C9
:1000B000C9F70E94BE030C94EC050C940000AF92AB
:1000C000BF92CF92DF92EF92FF920F931F93CF9345
:1000D000DF936C017B018B01040F151FEB015E01A7
:1000E000AE18BF08C017D10759F06991D601ED913C
:1000F000FC910190F081E02DC6010995892B79F7DB
:10010000C501DF91CF911F910F91FF90EF90DF908C
:10011000CF90BF90AF900895FC01538D448D252F53
:1001200030E0842F90E0821B930B541710F0CF9691
:10013000089501970895FC01918D828D981761F0C3
:10014000A28DAE0FBF2FB11D5D968C91928D9F5FDA
:100150009F73928F90E008958FEF9FEF0895FC01B9
:10016000918D828D981731F0828DE80FF11D858D6C
:1001700090E008958FEF9FEF0895FC01918D228DFF
:10018000892F90E0805C9F4F821B91098F73992784
:10019000089587E492E00E94BD0021E0892B09F4D4
:1001A00020E0822F089580E090E0892B29F00E94C2
:1001B000C90081110C9400000895FC01A48DA80FC2
:1001C000B92FB11DA35ABF4F2C91848D90E0019699
:1001D0008F739927848FA689B7892C93A089B189B9
:1001E0008C91837080648C93938D848D981306C05A
:1001F0000288F389E02D80818F7D80830895EF92BE
:10020000FF920F931F93CF93DF93EC0181E0888FD0
:100210009B8D8C8D98131AC0E889F989808185FFA0
:1002200015C09FB7F894EE89FF896083E889F98942
:1002300080818370806480839FBF81E090E0DF9144
:10024000CF911F910F91FF90EF900895F62E0B8D97
:1002500010E00F5F1F4F0F731127E02E8C8D8E1152
:100260000CC00FB607FCFACFE889F989808185FFB9
:10027000F5CFCE010E94DD00F1CFEB8DEC0FFD2F0D
:10028000F11DE35AFF4FF0829FB7F8940B8FEA8974
:10029000FB8980818062CFCFCF93DF93EC01888D83
:1002A0008823B9F0AA89BB89E889F9898C9185FDF1
:1002B00003C0808186FD0DC00FB607FCF7CF8C917F
:1002C00085FFF2CF808185FFEDCFCE010E94DD005A
:1002D000E9CFDF91CF9108953FB7F89480913F0225
:1002E00090914002A0914102B091420226B5A89B94
:1002F00005C02F3F19F00196A11DB11D3FBFBA2FB8
:10030000A92F982F8827BC01CD01620F711D811D77
:10031000911D42E0660F771F881F991F4A95D1F7FC
:1003200008958F929F92AF92BF92CF92DF92EF92F9
:10033000FF924B015C010E946C016B017C010E94E9
:100340006C016C197D098E099F09683E7340810517
:100350009105A8F321E0821A9108A108B10888EE5E
:10036000C80E83E0D81EE11CF11C81149104A10485
:10037000B10429F7FF90EF90DF90CF90BF90AF903E
:100380009F908F900895FC0101900020E9F731972C
:10039000AF01481B590BBC0187E492E00C945F004D
:1003A0008F929F92AF92BF920F931F93CF93DF9341
:1003B000CDB7DEB7A1970FB6F894DEBF0FBECDBFA5
:1003C00019A2423008F44AE08E010F5D1F4F842EBF
:1003D000912CB12CA12CA50194010E94B505E62F0A
:1003E000B901CA01EA30F4F4E05DD801EE938D0161
:1003F000232B242B252B79F790E080E0109719F020
:10040000CD010E94C301A1960FB6F894DEBF0FBEC6
:10041000CDBFDF91CF911F910F91BF90AF909F9073
:100420008F900895E95CE1CFCF92DF92EF92FF9237
:10043000CF93DF936B017C016DE287E492E00E9431
:10044000FF00EC0166277727CB016C197D098E0927
:100450009F094AE00E94D0018C0F9D1FDF91CF9130
:10046000FF90EF90DF90CF900895CF93DF930E949D
:10047000C301EC0186E191E00E94C3018C0F9D1F36
:10048000DF91CF9108950C94C301CF93DF93EC01DA
:100490006091430270914402072E000C880B990B67
:1004A00097FF0BC00E94140289E191E00E94430271
:1004B000CE01DF91CF910C9435024AE00E94D00129
:1004C000F3CFBC01990F880B990B97FD0C94140284
:1004D0004AE00C94D001CF93C82F809143029091B1
:1004E00044020E9461028DE191E0CC23E1F08CE2B4
:1004F00091E0C130C1F08BE391E0C230A1F089E41A
:1005000091E0C33081F086E591E0CF3F61F0C430E7
:1005100060F087E691E00E9443028C2F90E00E94F9
:10052000610285E791E00E94430288E791E0CF9164
:100530000C943502CF93DF93C0914502D0914602CF
:10054000C332D10509F476C088F5209709F440C07C
:10055000C331D10509F44CC0C1158FEFD80710F491
:10056000C4E0D0E080914302909144020E94610275
:1005700089E191E00E94430282ED91E00E944302F2
:1005800082E791E00E9443026C2F70E090E080E0EF
:100590004AE00E94D00187E891E00E94350283E2A0
:1005A00090E0909346028093450233C0CA32D10551
:1005B00069F0CF3FDC0781F68DEE91E00E944502A5
:1005C0008AE290E09093460280934502CFEF21C0EB
:1005D00089E891E00E94450281EA91E00E9445028B
:1005E00083E190E09093460280934502C0E011C001
:1005F0000E942B0526E030E040E050E00E94830599
:10060000623059F487E190E090934602809345026E
:10061000C2E08C2FDF91CF910895633019F487E009
:100620009FEFE0CF6430C1F68CEB91E00E94450271
:10063000C3E0EFCFC4E0EDCF1F920F920FB60F9241
:1006400011242F933F934F935F936F937F938F93D7
:100650009F93AF93BF93EF93FF9387E492E00E9441
:10066000DD00FF91EF91BF91AF919F918F917F91AD
:100670006F915F914F913F912F910F900FBE0F900F
:100680001F9018951F920F920FB60F9211242F935F
:100690008F939F93EF93FF93E0915702F09158024D
:1006A0008081E0915D02F0915E0282FD1BC090812D
:1006B000809160028F5F8F7320916102821741F0F9
:1006C000E0916002F0E0E95BFD4F958F809360025E
:1006D000FF91EF919F918F912F910F900FBE0F90EF
:1006E0001F9018958081F4CF1F920F920FB60F9232
:1006F00011242F933F938F939F93AF93BF93809138
:100700003B0290913C02A0913D02B0913E0230919B
:100710003A0223E0230F2D3758F50196A11DB11D94
:1007200020933A0280933B0290933C02A0933D02B7
:10073000B0933E0280913F0290914002A09141020D
:10074000B09142020196A11DB11D80933F0290938A
:100750004002A0934102B0934202BF91AF919F919A
:100760008F913F912F910F900FBE0F901F90189572
:1007700026E8230F0296A11DB11DD2CF789484B52F
:10078000826084BD84B5816084BD85B5826085BD8D
:1007900085B5816085BD80916E00816080936E001B
:1007A000109281008091810082608093810080910D
:1007B00081008160809381008091800081608093BE
:1007C00080008091B10084608093B1008091B0007E
:1007D00081608093B00080917A00846080937A0079
:1007E00080917A00826080937A0080917A008160A3
:1007F00080937A0080917A00806880937A001092CA
:10080000C100E0915702F091580282E08083E091AC
:100810005302F09154021082E0915502F091560279
:100820008FEC808310925F02E0915B02F0915C029A
:1008300086E08083E0915902F0915A0280818061C4
:100840008083E0915902F0915A0280818860808310
:10085000E0915902F0915A02808180688083E09192
:100860005902F0915A0280818F7D808380E48093C9
:100870007C0080917A00806480937A0080917A0075
:1008800086FDFCCF8091780060917900762F682FEB
:10089000072E000C880B990B6115710581059105D8
:1008A00011F00E947A0587E092E00E94350268EE1E
:1008B00073E080E090E00E949101CFEFDFEF00E075
:1008C00010E082E292E00E944502109246021092ED
:1008D00045020E949A02823048F40E946B0268EE40
:1008E00073E080E090E00E949101F3CF0E946B02E0
:1008F00068EE73E080E090E00E949101D0934602A0
:10090000C09345020E949A02823048F40E946B0212
:1009100068EE73E080E090E00E949101F3CF0E94C6
:100920006B0268EE73E080E090E00E94910180919C
:1009300043029091440201969093440280934302B3
:1009400060ED77E080E090E00E94910101151105D3
:1009500009F4B7CF0E94C900882309F4B2CF0E94DE
:100960000000AFCFE7E4F2E01382128288EE93E05A
:10097000A0E0B0E084839583A683B78388E091E00C
:100980009183808385EC90E09587848784EC90E068
:100990009787868780EC90E0918B808B81EC90E04C
:1009A000938B828B82EC90E0958B848B86EC90E02D
:1009B000978B868B118E128E138E148E08958F92C4
:1009C0009F92AF92BF92CF92DF92EF92FF92CF931E
:1009D000DF93EC01688179818A819B8161157105C2
:1009E0008105910521F464E279ED8BE597E02DE135
:1009F00033EF41E050E00E94830549015A019B0119
:100A0000AC01A7EAB1E40E94A2056B017C01ACEE47
:100A1000B4EFA50194010E94B005C60ED71EE81ED2
:100A2000F91EF7FE06C081E0C81AD108E10880E887
:100A3000F80AC882D982EA82FB82C701B6019F7791
:100A4000DF91CF91FF90EF90DF90CF90BF90AF906C
:100A50009F908F9008958F929F92AF92BF92CF9266
:100A6000DF92EF92FF9260910001709101018091FD
:100A7000020190910301611571058105910521F431
:100A800064E279ED8BE597E02DE133EF41E050E052
:100A90000E94830549015A019B01AC01A7EAB1E418
:100AA0000E94A2056B017C01ACEEB4EFA50194019C
:100AB0000E94B005C60ED71EE81EF91EF7FE06C03E
:100AC00081E0C81AD108E10880E8F80AC092000164
:100AD000D0920101E0920201F0920301C701B60138
:100AE0009F77FF90EF90DF90CF90BF90AF909F9057
:100AF0008F9008956093000170930101809302012B
:100B0000909303010895052E97FB1EF400940E9414
:100B10009A0557FD07D00E94B50507FC03D04EF497
:100B20000C949A0550954095309521953F4F4F4F25
:100B30005F4F089590958095709561957F4F8F4F89
:100B40009F4F08950E94D705A59F900DB49F900DCB
:100B5000A49F800D911D11240895B7FF0C94A20548
:100B60000E94A205821B930B0895A1E21A2EAA1BD4
:100B7000BB1BFD010DC0AA1FBB1FEE1FFF1FA2174D
:100B8000B307E407F50720F0A21BB30BE40BF50B4A
:100B9000661F771F881F991F1A9469F760957095D3
:100BA000809590959B01AC01BD01CF010895A29F56
:100BB000B001B39FC001A39F700D811D1124911D31
:100BC000B29F700D811D1124911D0895EE0FFF1F1E
:0C0BD0000590F491E02D0994F894FFCFFB
:100BDC000100000000000000FF005F008C004C01D1
:100BEC00BD009B00AF000D0A00202D2000202D2001
:100BFC0050545F57414954494E472000202D2050F6
:100C0C00545F5949454C4445442000202D205054F4
:100C1C005F4558495445442000202D2050545F45D1
:100C2C004E4445442000202D2050545F46494E41EF
:100C3C004C495A45442000202D2050545F455252B7
:100C4C004F52202800292000766F69642074657348
:100C5C0074315F72756E28290050545F42454749C4
:100C6C004E28292070726F746F74687265616431DC
:100C7C000050545F574149545F4F4E45282920700E
:100C8C00726F746F746872656164310050545F45A3
:100C9C004E4445442070726F746F74687265616461
:100CAC00310050545F4341544348414E5928292048
:100CBC0070726F746F746872656164310050545F48
:100CCC0046494E414C4C5928292070726F746F74F0
:100CDC0068726561643100446F6E6520736574756C
:100CEC00702C2077616974696E672031207365639D
:100CFC002E00766F69642074657374315F72756E43
:0A0D0C0028292053544152540000DE
:00000001FF
