:100000000C9434000C9451000C9451000C94510049
:100010000C9451000C9451000C9451000C9451001C
:100020000C9451000C9451000C9451000C9451000C
:100030000C9451000C9451000C9451000C945100FC
:100040000C94CC000C9451000C9457010C941601A4
:100050000C9451000C9451000C9451000C945100DC
:100060000C9451000C94510011241FBECFEFD8E026
:10007000DEBFCDBF11E0A0E0B1E0EEE5F5E002C0EB
:1000800005900D92A031B107D9F721E0A0E1B1E0D0
:1000900001C01D92A433B207E1F70E94A0010C94A5
:1000A000AD020C94000020910501E091070131E0C0
:1000B000320F909106014E2F491B942F922339172E
:1000C00081F02091080130910901E20FF32FF11D19
:1000D0008083809107018F5F909105018923809330
:1000E000070181E0809333010895909101012091EF
:1000F000000180910201891B822369F0E0910301D4
:10010000F0910401E90FF11D80819F5F922390938C
:10011000010190E008958FEF9FEF08953FB7F894A5
:100120008091290190912A01A0912B01B0912C017D
:1001300026B5A89B05C02F3F19F00196A11DB11D42
:100140003FBFBA2FA92F982F8827BC01CD01620F7E
:10015000711D811D911D42E0660F771F881F991F39
:100160004A95D1F708958091200190912101A091A5
:100170002201B09123010196A11DB11D80932001A0
:1001800090932101A0932201B0932301E0ECF0E0D1
:100190008081837E808308951F920F920FB60F9205
:1001A00011242F933F938F939F93AF93BF9380918D
:1001B000250190912601A0912701B091280130914D
:1001C000240123E0230F2D3758F50196A11DB11D01
:1001D000209324018093250190932601A093270169
:1001E000B09328018091290190912A01A0912B01BF
:1001F000B0912C010196A11DB11D8093290190930E
:100200002A01A0932B01B0932C01BF91AF919F9134
:100210008F913F912F910F900FBE0F901F901895C7
:1002200026E8230F0296A11DB11DD2CF1F920F9277
:100230000FB60F9211242F933F934F935F936F93B9
:100240007F938F939F93AF93BF93EF93FF9380918F
:10025000310190913201892BF9F0E0913101F09157
:100260003201099597FD18C08093C6008091C000A7
:1002700080648093C000FF91EF91BF91AF919F91F7
:100280008F917F916F915F914F913F912F910F903F
:100290000FBE0F901F9018958091C00080648093CE
:1002A000C0008091C1008F7D8093C100E4CF1F9278
:1002B0000F920FB60F9211242F933F934F935F939A
:1002C0006F937F938F939F93AF93BF93EF93FF931E
:1002D0008091C000982F9C70C9F48091C600209135
:1002E0002D0130912E01232B31F5FF91EF91BF911C
:1002F000AF919F918F917F916F915F914F913F91BE
:100300002F910F900FBE0F901F90189583FD0FC077
:100310008091C60087E020912F0130913001232B7E
:1003200021F3E0912F01F09130010995DECF80910A
:10033000C60086E0F0CFE0912D01F0912E01F5CFBF
:10034000789484B5826084BD84B5816084BD85B5B0
:10035000826085BD85B5816085BD80916E008160BC
:1003600080936E0010928100809181008260809362
:100370008100809181008160809381008091800064
:100380008160809380008091B10084608093B1008F
:100390008091B00081608093B00080917A00846089
:1003A00080937A0080917A00826080937A008091B5
:1003B0007A00816080937A0080917A0080688093CF
:1003C0007A001092C10083E590E090932E01809313
:1003D0002D0183EB90E09093300180932F0185E70E
:1003E00090E090933201809331011092C10082E03D
:1003F0008093C0001092C5009FEC9093C40080933E
:10040000C2008091C10080618093C1008091C100D1
:1004100088608093C1008091C10080688093C10092
:100420008091C1008F7D8093C100C0E0D0E08091B9
:10043000C10085FD38C08091C00085FB882780F908
:1004400080FF85C080913301882309F480C0109219
:10045000330190E0E92FF0E0E65FFE4F80813091BC
:10046000000141E0430FE0910201209101015E2F64
:10047000521B252F23238823C1F08D30B1F0421762
:10048000A1F09F5F2091030130910401E20FF32F4F
:10049000F11D8083809102018F5F209100018223F2
:1004A00080930201D7CF80E0CBCF809106013091BD
:1004B000050190910701981B93234091000151E0A1
:1004C000540FE0910201209101016E2F621B262F33
:1004D00024239923F1F05217E1F3A0910801B09180
:1004E0000901A80FB11D9C918F5F832380930601A2
:1004F0002091030130910401E20FF32FF11D90834D
:10050000809102018F5F9091000189238093020105
:10051000CCCF8091C10080628093C10080910201A4
:1005200090910101891B90910001892381F00E9423
:100530008E006B017C010E948E006C197D098E0972
:100540009F09683E73408105910540F7F4CF2097DD
:0E05500009F46DCF0E9400006ACFF894FFCF2F
:10055E00070000100107000018016563686F200096
:00000001FF
