:100000000C9435000C945D000C945D000C945D0024
:100010000C945D000C945D000C945D000C945D00EC
:100020000C945D000C945D000C945D000C945D00DC
:100030000C945D000C945D000C945D000C945D00CC
:100040000C9481020C945D000C944F020C942902D4
:100050000C945D000C945D000C945D000C945D00AC
:100060000C945D000C945D005B0411241FBECFEF67
:10007000D8E0DEBFCDBF11E0A0E0B1E0E4E6F9E0FA
:1000800002C005900D92AE3EB107D9F722E0AEEE68
:10009000B1E001C01D92AC39B207E1F710E0C5E351
:1000A000D0E004C02197FE010E94AA04C433D10706
:1000B000C9F70E94CB020C94B0040C940000AF92DC
:1000C000BF92CF92DF92EF92FF920F931F93CF9345
:1000D000DF936C017B018B01040F151FEB015E01A7
:1000E000AE18BF08C017D10759F06991D601ED913C
:1000F000FC910190F081E02DC6010995892B79F7DB
:10010000C501DF91CF911F910F91FF90EF90DF908C
:10011000CF90BF90AF900895FC01538D448D252F53
:1001200030E0842F90E0821B930B541710F0CF9691
:10013000089501970895FC01918D828D981761F0C3
:10014000A28DAE0FBF2FB11D5D968C91928D9F5FDA
:100150009F73928F90E008958FEF9FEF0895FC01B9
:10016000918D828D981731F0828DE80FF11D858D6C
:1001700090E008958FEF9FEF0895FC01918D228DFF
:10018000892F90E0805C9F4F821B91098F73992784
:1001900008958FEF91E00E94BD0021E0892B09F4C2
:1001A00020E0822F089580E090E0892B29F00E94C2
:1001B000C90081110C9400000895FC01A48DA80FC2
:1001C000B92FB11DA35ABF4F2C91848D90E0019699
:1001D0008F739927848FA689B7892C93A089B189B9
:1001E0008C91837080648C93938D848D981306C05A
:1001F0000288F389E02D80818F7D80830895EF92BE
:10020000FF920F931F93CF93DF93EC0181E0888FD0
:100210009B8D8C8D98131AC0E889F989808185FFA0
:1002200015C09FB7F894EE89FF896083E889F98942
:1002300080818370806480839FBF81E090E0DF9144
:10024000CF911F910F91FF90EF900895F62E0B8D97
:1002500010E00F5F1F4F0F731127E02E8C8D8E1152
:100260000CC00FB607FCFACFE889F989808185FFB9
:10027000F5CFCE010E94DD00F1CFEB8DEC0FFD2F0D
:10028000F11DE35AFF4FF0829FB7F8940B8FEA8974
:10029000FB8980818062CFCFCF93DF93EC01888D83
:1002A0008823B9F0AA89BB89E889F9898C9185FDF1
:1002B00003C0808186FD0DC00FB607FCF7CF8C917F
:1002C00085FFF2CF808185FFEDCFCE010E94DD005A
:1002D000E9CFDF91CF9108953FB7F8948091F30172
:1002E0009091F401A091F501B091F60126B5A89B7B
:1002F00005C02F3F19F00196A11DB11D3FBFBA2FB8
:10030000A92F982F8827BC01CD01620F711D811D77
:10031000911D42E0660F771F881F991F4A95D1F7FC
:100320000895FC0101900020E9F73197AF01481BC7
:10033000590BBC018FEF91E00C945F00CF93DF93DA
:100340000E949101EC0182E191E00E9491018C0FE9
:100350009D1FDF91CF9108958F929F92AF92BF9290
:10036000CF92DF92EF92FF920F931F93CF93DF9381
:10037000CDB7DEB7A1970FB6F894DEBF0FBECDBFE5
:100380006C01990FEE08FF08F7FE41C06DE28FEF98
:1003900091E00E94FF008C0122273327A9012C192C
:1003A0003D094E095F0919A2CE0181967C019AE0B0
:1003B000892E912CA12CB12CCA01B901A50194015F
:1003C0000E948804605DF70162937F012115310569
:1003D0004105510589F790E080E0309719F0CF0191
:1003E0000E949101800F911FA1960FB6F894DEBF75
:1003F0000FBECDBFDF91CF911F910F91FF90EF9076
:10040000DF90CF90BF90AF909F908F900895A701FD
:10041000960119A28E010F5D1F4F8AE0C82ED12CC4
:10042000E12CF12CCA01B901A70196010E948804B0
:10043000605DF80162938F01211531054105510579
:1004400089F790E080E0309779F2CF010E94910126
:10045000CBCF1F920F920FB60F9211242F933F9381
:100460004F935F936F937F938F939F93AF93BF93BC
:10047000EF93FF938FEF91E00E94DD00FF91EF91EA
:10048000BF91AF919F918F917F916F915F914F91AC
:100490003F912F910F900FBE0F901F9018951F92B4
:1004A0000F920FB60F9211242F938F939F93EF9378
:1004B000FF93E0910F02F09110028081E09115020C
:1004C000F091160282FD1BC09081809118028F5F0F
:1004D0008F7320911902821741F0E0911802F0E029
:1004E000E150FE4F958F80931802FF91EF919F91FD
:1004F0008F912F910F900FBE0F901F9018958081B4
:10050000F4CF1F920F920FB60F9211242F933F93A7
:100510008F939F93AF93BF938091EF019091F001E0
:10052000A091F101B091F2013091EE0123E0230F8F
:100530002D3758F50196A11DB11D2093EE01809332
:10054000EF019093F001A093F101B093F20180913B
:10055000F3019091F401A091F501B091F60101969B
:10056000A11DB11D8093F3019093F401A093F501B7
:10057000B093F601BF91AF919F918F913F912F91D1
:100580000F900FBE0F901F90189526E8230F02962C
:10059000A11DB11DD2CF789484B5826084BD84B58D
:1005A000816084BD85B5826085BD85B5816085BD6E
:1005B00080916E00816080936E0010928100809126
:1005C00081008260809381008091810081608093AE
:1005D0008100809180008160809380008091B100D3
:1005E00084608093B1008091B00081608093B000FE
:1005F00080917A00846080937A0080917A00826092
:1006000080937A0080917A00816080937A00809153
:100610007A00806880937A001092C100E0910F0206
:10062000F091100282E08083E0910B02F0910C02C5
:100630001082E0910D02F0910E028FEC80831092F7
:100640001702E0911302F091140286E08083E0919A
:100650001102F0911202808180618083E091110289
:10066000F0911202808188608083E0911102F09104
:100670001202808180688083E0911102F091120261
:1006800080818F7D808385E191E00E949E011092A0
:10069000FC011092FB011092FA011092F9011092E4
:1006A000F8011092F7012BE3222E312C35E5832E31
:1006B000912C0CE510E090E5A92EB12CC0E0D0E023
:1006C00080E491E00E9491018091FD019091FE01F2
:1006D0000E94AC0182E191E00E9491018091FB01B6
:1006E0009091FC01009729F08997D1F48DE290E078
:1006F00013C08091FD019091FE019C012F5F3F4F3F
:100700003093FE012093FD010E94AC018EE491E044
:100710000E949E0189E290E09093FC018093FB018E
:100720008091F9019091FA018B33910509F458C039
:100730008034910509F46CC0892BA9F48091FD01E6
:100740009091FE019C012F5F3F4F3093FE0120935B
:10075000FD010E94AC0187E691E00E949E0130926B
:10076000FA012092F9018091F7019091F80180350A
:10077000910509F472C008F04EC0892B09F457C0E6
:100780000E946C016B017C0180ED482E87E0582EA1
:10079000612C712C0E946C016C197D098E099F09D6
:1007A000683E734081059105A8F391E0491A51080C
:1007B0006108710828EEC20E23E0D21EE11CF11C74
:1007C000411451046104710429F7209709F478CF8A
:1007D0000E94C900882309F46CCF0E94000069CFF1
:1007E0008091FD019091FE019C012F5F3F4F30935E
:1007F000FE012093FD010E94AC0180E891E00E947F
:100800009E0180E490E09093FA018093F901ABCFD0
:1008100082E490E0F8CF85359105A9F18A359105FC
:1008200009F0AECF1093F8010093F701A9CF8091A2
:10083000FD019091FE019C012F5F3F4F3093FE011F
:100840002093FD010E94AC018CE991E00E949E0181
:10085000B092F801A092F70193CF8091FD019091A1
:10086000FE019C012F5F3F4F3093FE012093FD015D
:100870000E94AC0185EB91E00E949E019092F801EC
:100880008092F7017DCF8091FD019091FE019C0146
:100890002F5F3F4F3093FE012093FD010E94AC017A
:1008A00081ED91E00E949E018AE590E09093F8012D
:1008B0008093F70165CFEFEFF1E01382128288EEAB
:1008C00093E0A0E0B0E084839583A683B78384E0BF
:1008D00091E09183808385EC90E09587848784EC18
:1008E00090E09787868780EC90E0918B808B81ECFD
:1008F00090E0938B828B82EC90E0958B848B86ECDE
:1009000090E0978B868B118E128E138E148E089525
:10091000A1E21A2EAA1BBB1BFD010DC0AA1FBB1F03
:10092000EE1FFF1FA217B307E407F50720F0A21B75
:10093000B30BE40BF50B661F771F881F991F1A94E2
:1009400069F760957095809590959B01AC01BD010C
:10095000CF010895EE0FFF1F0590F491E02D09944B
:04096000F894FFCF39
:1009640000000000FF005F008C004C01BD009B00F4
:10097400AF000D0A00766F69642073657475702882
:1009840029202D3E20496E697469616C697A696E0B
:10099400672070726F746F746872656164732E007F
:1009A400766F6964206C6F6F7028293A2000202DBF
:1009B4002050726F746F74687265616420312072A4
:1009C400756E6E696E6700202D2050726F746F749F
:1009D400687265616420322072756E6E696E67009C
:1009E400202D2050726F746F7468726561642032B8
:1009F40020636F6E74696E7565203100202D205060
:100A0400726F746F74687265616420332072756EDE
:100A14006E696E6700202D2050726F746F74687257
:100A2400656164203320636F6E74696E756520316F
:100A340000202D2050726F746F7468726561642099
:0E0A44003320636F6E74696E7565203200009A
:00000001FF
