:100000000C9435000C945D000C945D000C945D0024
:100010000C945D000C945D000C945D000C945D00EC
:100020000C945D000C945D000C945D000C945D00DC
:100030000C945D000C945D000C945D000C945D00CC
:100040000C94F6010C945D000C94C4010C949E0178
:100050000C945D000C945D000C945D000C945D00AC
:100060000C945D000C945D00550411241FBECFEF6D
:10007000D8E0DEBFCDBF11E0A0E0B1E0E8EAF9E0F2
:1000800002C005900D92A632B107D9F721E0A6E291
:10009000B1E001C01D92A23FB207E1F710E0C5E355
:1000A000D0E004C02197FE010E94CC04C433D107E4
:1000B000C9F70E9440020C94D2040C940000AF9245
:1000C000BF92CF92DF92EF92FF920F931F93CF9345
:1000D000DF936C017B018B01040F151FEB015E01A7
:1000E000AE18BF08C017D10759F06991D601ED913C
:1000F000FC910190F081E02DC6010995892B79F7DB
:10010000C501DF91CF911F910F91FF90EF90DF908C
:10011000CF90BF90AF900895FC01538D448D252F53
:1001200030E0842F90E0821B930B541710F0CF9691
:10013000089501970895FC01918D828D981761F0C3
:10014000A28DAE0FBF2FB11D5D968C91928D9F5FDA
:100150009F73928F90E008958FEF9FEF0895FC01B9
:10016000918D828D981731F0828DE80FF11D858D6C
:1001700090E008958FEF9FEF0895FC01918D228DFF
:10018000892F90E0805C9F4F821B91098F73992784
:10019000089585E591E00E94BD0021E0892B09F4D6
:1001A00020E0822F089580E090E0892B29F00E94C2
:1001B000C90081110C9400000895FC01A48DA80FC2
:1001C000B92FB11DA35ABF4F2C91848D90E0019699
:1001D0008F739927848FA689B7892C93A089B189B9
:1001E0008C91837080648C93938D848D981306C05A
:1001F0000288F389E02D80818F7D80830895EF92BE
:10020000FF920F931F93CF93DF93EC0181E0888FD0
:100210009B8D8C8D98131AC0E889F989808185FFA0
:1002200015C09FB7F894EE89FF896083E889F98942
:1002300080818370806480839FBF81E090E0DF9144
:10024000CF911F910F91FF90EF900895F62E0B8D97
:1002500010E00F5F1F4F0F731127E02E8C8D8E1152
:100260000CC00FB607FCFACFE889F989808185FFB9
:10027000F5CFCE010E94DD00F1CFEB8DEC0FFD2F0D
:10028000F11DE35AFF4FF0829FB7F8940B8FEA8974
:10029000FB8980818062CFCFCF93DF93EC01888D83
:1002A0008823B9F0AA89BB89E889F9898C9185FDF1
:1002B00003C0808186FD0DC00FB607FCF7CF8C917F
:1002C00085FFF2CF808185FFEDCFCE010E94DD005A
:1002D000E9CFDF91CF9108953FB7F89480912B013A
:1002E00090912C01A0912D01B0912E0126B5A89BD3
:1002F00005C02F3F19F00196A11DB11D3FBFBA2FB8
:10030000A92F982F8827BC01CD01620F711D811D77
:10031000911D42E0660F771F881F991F4A95D1F7FC
:100320000895FC0101900020E9F73197AF01481BC7
:10033000590BBC0185E591E00C945F001F920F9270
:100340000FB60F9211242F933F934F935F936F93A8
:100350007F938F939F93AF93BF93EF93FF9385E525
:1003600091E00E94DD00FF91EF91BF91AF919F91CD
:100370008F917F916F915F914F913F912F910F904E
:100380000FBE0F901F9018951F920F920FB60F92ED
:1003900011242F938F939F93EF93FF93E091650127
:1003A000F09166018081E0916B01F0916C0182FD1A
:1003B0001BC0908180916E018F5F8F7320916F01C0
:1003C000821741F0E0916E01F0E0EB5AFE4F958FFD
:1003D00080936E01FF91EF919F918F912F910F90DC
:1003E0000FBE0F901F9018958081F4CF1F920F922F
:1003F0000FB60F9211242F933F938F939F93AF9338
:10040000BF938091270190912801A0912901B0917B
:100410002A013091260123E0230F2D3758F501964C
:10042000A11DB11D209326018093270190932801DF
:10043000A0932901B0932A0180912B0190912C0166
:10044000A0912D01B0912E010196A11DB11D8093A7
:100450002B0190932C01A0932D01B0932E01BF91FD
:10046000AF919F918F913F912F910F900FBE0F9061
:100470001F90189526E8230F0296A11DB11DD2CF1B
:10048000CF93DF93CDB7DEB7A2970FB6F894DEBF58
:100490000FBECDBF789484B5826084BD84B5816081
:1004A00084BD85B5826085BD85B5816085BD80913F
:1004B0006E00816080936E001092810080918100B7
:1004C00082608093810080918100816080938100AF
:1004D000809180008160809380008091B100846071
:1004E0008093B1008091B00081608093B0008091D2
:1004F0007A00846080937A0080917A008260809391
:100500007A0080917A00816080937A0080917A00ED
:10051000806880937A001092C100E0916501F091AB
:10052000660182E08083E0916101F09162011082B6
:10053000E0916301F09164018FEC808310926D0172
:10054000E0916901F0916A0186E08083E0916701A2
:10055000F0916801808180618083E0916701F09172
:100560006801808188608083E0916701F091680173
:10057000808180688083E0916701F09168018081CB
:100580008F7D80836AE0C62ED12CE12CF12C109255
:1005900054011092530156E9252E312C80915301BC
:1005A000909154018639910529F18839910509F412
:1005B00079C1892B09F04BC110925201109251015F
:1005C0001092500110924F0110924E0110924D0165
:1005D00088E090E090934C0180934B0110924A0187
:1005E0001092490110924801109247013092540133
:1005F000209253018091490190914A018D369105D5
:10060000C1F08437910509F45CC0892B09F05AC008
:10061000109246011092450180914501909146014A
:1006200080970CF048C0EDE6F0E0F0934A01E093CB
:10063000490180914D0190914E0120914B013091E3
:100640004C0100E028173907E9F1019690934E011B
:1006500080934D012091430130914401C9010196DD
:100660009093440180934301809141019091420114
:10067000FC01EE0FFF1FEF5CFE4F318320830196DC
:1006800068E070E00E9482049093420180934101EF
:1006900080914F0190915001019690935001809369
:1006A0004F0180914501909146010196909346013A
:1006B00080934501B1CF84E790E090934A01809305
:1006C000490103E080914701909148018F379105DE
:1006D000C1F08638910509F4A0C0892B09F09EC0AD
:1006E0001092300110922F0180912F0190913001D2
:1006F00080970CF08CC0EFE7F0E0F0934801E093B6
:100700004701809151019091520120914F01309108
:10071000500110E02817390709F480C00196909322
:100720005201809351018091410190914201FC015D
:10073000EE0FFF1FEF5CFE4F80809180019668E016
:1007400070E00E948204909342018093410182E113
:1007500091E00E949101092C000CAA08BB08B7FE89
:1007600040C06DE285E591E00E94FF00222733271B
:10077000A901281939094A095B0919A2CE018196F4
:100780004C01CA01B901A70196010E949604605D5F
:10079000F40162934F01211531054105510589F797
:1007A0008114910419F0C4010E94910188E191E043
:1007B0000E94910182E291E00E94910180914B019F
:1007C00090914C01019690934C0180934B01809144
:1007D0002F019091300101969093300180932F0169
:1007E00083CFA501940119A2CE0181964C01CA01C3
:1007F000B901A70196010E949604605DF40162931D
:100800004F01211531054105510589F7C9CF86E80A
:1008100090E0909348018093470113E0812F80235B
:100820008230F0F188E990E0909354018093530175
:1008300093E09AA380E090E0892B09F4A8CE0E946F
:10084000C900882309F4A3CE0E940000A0CEEAA12B
:10085000E23080F70E946C014B015C0180ED482E74
:1008600087E0582E612C712C0E946C01681979095F
:100870008A099B09683E734081059105A8F3F1E060
:100880004F1A51086108710828EE820E23E0921E6B
:10089000A11CB11C411451046104710429F77ECEDE
:1008A0001AA2D8CFF3E0FAA3C5CFE5E5F1E01382B1
:1008B000128288EE93E0A0E0B0E084839583A68363
:1008C000B78384E091E09183808385EC90E0958705
:1008D000848784EC90E09787868780EC90E0918B0A
:1008E000808B81EC90E0938B828B82EC90E0958BF7
:1008F000848B86EC90E0978B868B118E128E138EF4
:10090000148E089597FB072E16F4009407D077FDF8
:1009100009D00E94B80407FC05D03EF4909581955B
:100920009F4F0895709561957F4F0895A1E21A2E0B
:10093000AA1BBB1BFD010DC0AA1FBB1FEE1FFF1F83
:10094000A217B307E407F50720F0A21BB30BE40BD3
:10095000F50B661F771F881F991F1A9469F760951A
:100960007095809590959B01AC01BD01CF010895D4
:10097000AA1BBB1B51E107C0AA1FBB1FA617B707C5
:1009800010F0A61BB70B881F991F5A95A9F78095E1
:100990009095BC01CD010895EE0FFF1F0590F491D5
:0809A000E02D0994F894FFCF4B
:1009A80000000000FF005F008C004C01BD009B00B0
:1009B800AF004974656D200020636F6E73756D65B7
:0609C80064000D0A0000AE
:00000001FF
