:100000000C9435000C945D000C945D000C945D0024
:100010000C945D000C945D000C945D000C945D00EC
:100020000C945D000C945D000C945D000C945D00DC
:100030000C945D000C945D000C945D000C945D00CC
:100040000C94B3020C945D000C943E030C94FD02DE
:100050000C945D000C945D000C945D000C945D00AC
:100060000C945D000C945D00870311241FBECFEF3C
:10007000D8E0DEBFCDBF12E0A0E0B1E0E4EAFAE0F4
:1000800002C005900D92A637B107D9F722E0A6E786
:10009000B2E001C01D92A33CB207E1F710E0C5E356
:1000A000D0E004C02197FE010E944A05C433D10765
:1000B000C9F70E9498030C9450050C940000AF926D
:1000C000BF92CF92DF92EF92FF920F931F93CF9345
:1000D000DF936C017B018B01040F151FEB015E01A7
:1000E000AE18BF08C017D10759F06991D601ED913C
:1000F000FC910190F081E02DC6010995892B79F7DB
:10010000C501DF91CF911F910F91FF90EF90DF908C
:10011000CF90BF90AF9008953FB7F8948091A5021B
:100120009091A602A091A702B091A80226B5A89B23
:1001300005C02F3F19F00196A11DB11D3FBFBA2F79
:10014000A92F982F8827BC01CD01620F711D811D39
:10015000911D42E0660F771F881F991F4A95D1F7BE
:100160000895909106012091050180910701891B56
:10017000822319F10FB607FE1BC03091C00035FF76
:100180001CC0E0910801F0910901E90FF11D3081D7
:100190009F5F9223909306012FB7F8943093C60087
:1001A0009091C00090649093C0002FBF815008953B
:1001B0009091C10090629093C100089590910601C2
:1001C0002091050180910701891B822369F0E0914C
:1001D0000801F0910901E90FF11D80819F5F9223D1
:1001E0009093060190E008958FEF9FEF089580911E
:1001F0009C0290919D02A0919E02B0919F02019657
:10020000A11DB11D80939C0290939D02A0939E021C
:10021000B0939F02E0ECF0E08081837E80830895BC
:10022000CF93C82F80919A0290919B02892BE9F479
:1002300090910001E0910201809101012E2F281B75
:10024000822F89239817D9F080910301909104019E
:10025000E80FF92FF11DC083809102018F5F90910B
:10026000000189238093020108C0E0919A02F09175
:100270009B028C2F09958823D9F2CF910895809104
:10028000960290919702A0919802B09199020196DE
:10029000A11DB11D8093960290939702A09398029E
:1002A000B0939902EACFCF93C62F90910501809128
:1002B000070120910601821B892391F42091C0003F
:1002C00025FF0EC09FB7F894C093C6008091C00070
:1002D00080648093C0009FBF81E090E0CF9108953B
:1002E0009817D1F09FB7F894E09107012091080189
:1002F00030910901E20FF32FF11DC08380910701B6
:100300008F5F209105018223809307018091C100B6
:1003100080628093C100DFCF0E94B100C6CFE5E0CC
:10032000F1E0808192812181921B9823891B90E0CA
:1003300008950E94B1008111FCCF089590910101B0
:100340002091000180910201891B822369F0E091D4
:100350000301F0910401E90FF11D80819F5F922359
:100360009093010190E008958FEF9FEF0895E09141
:100370000101809102018E1B90910001892351F0AF
:100380008091030190910401E80FF92FF11D808104
:1003900090E008958FEF9FEF0895E0E0F1E0828113
:1003A0009181891B9081892390E00895FC0101903F
:1003B0000020E9F73197AF01481B590BBC0187EBCF
:1003C00092E00C945F000C94D6018F929F92AF92B2
:1003D000BF92CF92DF92EF92FF920F931F93CF9332
:1003E000DF93CDB7DEB7A1970FB6F894DEBF0FBE8F
:1003F000CDBF6C01990FEE08FF08F7FE41C06DE21A
:1004000087EB92E00E9453018C0122273327A90138
:100410002C193D094E095F0919A2CE0181967C0174
:100420009AE0892E912CA12CB12CCA01B901A50109
:1004300094010E942805605DF70162937F012115F8
:1004400031054105510589F790E080E0309719F0BA
:10045000CF010E94D601800F911FA1960FB6F8948C
:10046000DEBF0FBECDBFDF91CF911F910F91FF90E7
:10047000EF90DF90CF90BF90AF909F908F900895B6
:10048000A701960119A28E010F5D1F4F8AE0C82EA9
:10049000D12CE12CF12CCA01B901A70196010E94CF
:1004A0002805605DF80162938F0121153105410532
:1004B000510589F790E080E0309779F2CF010E94F2
:1004C000D601CBCFCF93DF93EC018091AF02909117
:1004D000B0020E94E5018CE191E00E94E301CE01AF
:1004E0000E94E30180E291E0DF91CF910C94D6016C
:1004F0000F931F93CF93C82F8B018091AF029091E0
:10050000B0020E94E50183E291E0CC23E1F081E3B7
:1005100091E0C130C1F08FE391E0C230A1F08CE4F2
:1005200091E0C33081F088E591E0CF3F61F0C430C5
:1005300060F088E691E00E94E3018C2F90E00E9439
:10054000E5018BE991E00E94E3018EE191E00E94D8
:10055000E301C8010E94D60180E291E0CF911F9192
:100560000F910C94D6011F920F920FB60F92112487
:100570002F933F938F939F93AF93BF938091A1024B
:100580009091A202A091A302B091A4023091A00286
:1005900023E0230F2D3758F50196A11DB11D20939F
:1005A000A0028093A1029093A202A093A302B09311
:1005B000A4028091A5029091A602A091A702B091F9
:1005C000A8020196A11DB11D8093A5029093A602D9
:1005D000A093A702B093A802BF91AF919F918F9172
:1005E0003F912F910F900FBE0F901F90189526E806
:1005F000230F0296A11DB11DD2CF1F920F920FB6ED
:100600000F9211242F933F934F935F936F937F9398
:100610008F939F93AF93BF93EF93FF938091A90222
:100620009091AA02892BF9F0E091A902F091AA0217
:10063000099597FD18C08093C6008091C000806422
:100640008093C000FF91EF91BF91AF919F918F91E7
:100650007F916F915F914F913F912F910F900FBEBE
:100660000F901F9018958091C00080648093C00007
:100670008091C1008F7D8093C100E4CF1F920F92C3
:100680000FB60F9211242F933F934F935F936F9365
:100690007F938F939F93AF93BF93EF93FF9380913B
:1006A000C000982F9C70C9F48091C6002091AD02C3
:1006B0003091AE02232B31F5FF91EF91BF91AF91B5
:1006C0009F918F917F916F915F914F913F912F916A
:1006D0000F900FBE0F901F90189583FD0FC0809153
:1006E000C60087E02091AB023091AC02232B21F3AE
:1006F000E091AB02F091AC020995DECF8091C6008B
:1007000086E0F0CFE091AD02F091AE02F5CFE7EBDD
:10071000F2E01382128288EE93E0A0E0B0E08483DE
:100720009583A683B7838EE091E0918380830895BB
:10073000CF93DF931F92CDB7DEB7789484B58260F4
:1007400084BD84B5816084BD85B5826085BD85B575
:10075000816085BD80916E00816080936E001092F3
:10076000810080918100826080938100809181006E
:1007700081608093810080918000816080938000FF
:100780008091B10084608093B1008091B00081605D
:100790008093B00080917A00846080937A00809189
:1007A0007A00826080937A0080917A0081608093E1
:1007B0007A0080917A00806880937A001092C1005C
:1007C00080E191E09093AE028093AD0287EF90E0DC
:1007D0009093AC028093AB028EED90E09093AA02CE
:1007E0008093A9021092C10082E08093C000109211
:1007F000C5008FEC8093C40086E08093C200809196
:10080000C10080618093C1008091C10088608093A5
:10081000C1008091C10080688093C1008091C100B7
:100820008F7D8093C10080E291E00E94D60186E72F
:1008300091E00E94D60180E291E00E94D6011092E0
:10084000B6021092B5021092B4021092B302109246
:10085000B2021092B1029CE3892E912C05E510E0C2
:100860002AE5A22EB12C81E991E00E9462028091DA
:10087000B5029091B6028732910529F08C3291052C
:10088000B9F0892BB9F48091AF029091B002019632
:100890009093B0028093AF028DE991E00E946202D2
:1008A00087E290E09093B6028093B502198202C06D
:1008B0002FEF298363EB71E089810E947802809198
:1008C000B3029091B4028C33910509F46AC008F028
:1008D0004BC0892B09F452C06BEF71E0822D0E944E
:1008E00078028091B1029091B2028A35910509F4A3
:1008F0009BC008F06AC0009709F471C08535910566
:1009000009F480C06CE572E0832D0E9478020E9499
:100910008C002B013C0180EDC82E87E0D82EE12C05
:10092000F12C0E948C006419750986099709683EAC
:10093000734081059105A8F391E0C91AD108E10837
:10094000F10828EE420E23E0521E611C711CC114F6
:10095000D104E104F10429F780E090E0892B09F447
:1009600082CF0E9400007FCF8134910539F084341A
:10097000910509F0B1CF22242A94AECF8091AF0225
:100980009091B00201969093B0028093AF028CECEC
:1009900091E00E9462029092B4028092B302212CF4
:1009A0009BCF8091AF029091B00201969093B002DC
:1009B0008093AF0282EE91E00E94620281E490E0B7
:1009C0009093B4028093B302EACF8F35910539F04A
:1009D0008336910509F096CF33243A9493CF8091D2
:1009E000AF029091B00201969093B0028093AF0253
:1009F00084E192E00E9462021093B2020093B1027D
:100A0000312C80CF8091AF029091B00201969093EB
:100A1000B0028093AF028AE292E00E946202B0923A
:100A2000B202A092B102ECCF8091AF029091B002DD
:100A300001969093B0028093AF0283E492E00E940B
:100A400062028FE590E09093B2028093B102D8CF1A
:100A5000A1E21A2EAA1BBB1BFD010DC0AA1FBB1FC2
:100A6000EE1FFF1FA217B307E407F50720F0A21B34
:100A7000B30BE40BF50B661F771F881F991F1A94A1
:100A800069F760957095809590959B01AC01BD01CB
:100A9000CF010895EE0FFF1F0590F491E02D09940A
:040AA000F894FFCFF8
:100AA4000F000076020F00008602000000005301D0
:100AB4005F008F019901CD019E01B701202D200017
:100AC4000D0A00202D2050545F57414954494E4788
:100AD40000202D2050545F5949454C444544002082
:100AE4002D2050545F45584954454400202D205032
:100AF400545F454E44454400202D2050545F4649E0
:100B04004E414C495A454400202D2050545F4552D3
:100B1400524F52202800446F6E65207365747570BF
:100B24002C2077616974696E672031207365632EA8
:100B340000766F6964206C6F6F7028290050726FA3
:100B4400746F74687265616420312072756E6E69A9
:100B54006E6700766F6964206C6F6F7028293A7035
:100B6400726F746F746872656164310050726F746F
:100B74006F74687265616420322072756E6E696E7E
:100B8400670050726F746F746872656164203220FC
:100B9400636F6E74696E7565203100766F696420C9
:100BA4006C6F6F7028293A70726F746F7468726515
:100BB4006164320050726F746F746872656164208E
:100BC400332072756E6E696E670050726F746F7445
:100BD4006872656164203320636F6E74696E756535
:100BE40020310050726F746F7468726561642033D1
:100BF40020636F6E74696E7565203200766F696468
:100C0400206C6F6F7028293A70726F746F746872F9
:060C14006561643300007D
:00000001FF
