:100000000C9435000C945D000C945D000C945D0024
:100010000C945D000C945D000C945D000C945D00EC
:100020000C945D000C945D000C945D000C945D00DC
:100030000C945D000C945D000C945D000C945D00CC
:100040000C94F4020C945D000C94C2020C949C027B
:100050000C945D000C945D000C945D000C945D00AC
:100060000C945D000C945D00CE0411241FBECFEFF4
:10007000D8E0DEBFCDBF12E0A0E0B1E0E4E1FCE0FB
:1000800002C005900D92A837B107D9F723E0A8E781
:10009000B2E001C01D92A632B207E1F710E0C5E35D
:1000A000D0E004C02197FE010E940206C433D107AC
:1000B000C9F70E943E030C9408060C940000AF920E
:1000C000BF92CF92DF92EF92FF920F931F93CF9345
:1000D000DF936C017B018B01040F151FEB015E01A7
:1000E000AE18BF08C017D10759F06991D601ED913C
:1000F000FC910190F081E02DC6010995892B79F7DB
:10010000C501DF91CF911F910F91FF90EF90DF908C
:10011000CF90BF90AF900895FC01538D448D252F53
:1001200030E0842F90E0821B930B541710F0CF9691
:10013000089501970895FC01918D828D981761F0C3
:10014000A28DAE0FBF2FB11D5D968C91928D9F5FDA
:100150009F73928F90E008958FEF9FEF0895FC01B9
:10016000918D828D981731F0828DE80FF11D858D6C
:1001700090E008958FEF9FEF0895FC01918D228DFF
:10018000892F90E0805C9F4F821B91098F73992784
:10019000089589E892E00E94BD0021E0892B09F4CE
:1001A00020E0822F089580E090E0892B29F00E94C2
:1001B000C90081110C9400000895FC01A48DA80FC2
:1001C000B92FB11DA35ABF4F2C91848D90E0019699
:1001D0008F739927848FA689B7892C93A089B189B9
:1001E0008C91837080648C93938D848D981306C05A
:1001F0000288F389E02D80818F7D80830895EF92BE
:10020000FF920F931F93CF93DF93EC0181E0888FD0
:100210009B8D8C8D98131AC0E889F989808185FFA0
:1002200015C09FB7F894EE89FF896083E889F98942
:1002300080818370806480839FBF81E090E0DF9144
:10024000CF911F910F91FF90EF900895F62E0B8D97
:1002500010E00F5F1F4F0F731127E02E8C8D8E1152
:100260000CC00FB607FCFACFE889F989808185FFB9
:10027000F5CFCE010E94DD00F1CFEB8DEC0FFD2F0D
:10028000F11DE35AFF4FF0829FB7F8940B8FEA8974
:10029000FB8980818062CFCFCF93DF93EC01888D83
:1002A0008823B9F0AA89BB89E889F9898C9185FDF1
:1002B00003C0808186FD0DC00FB607FCF7CF8C917F
:1002C00085FFF2CF808185FFEDCFCE010E94DD005A
:1002D000E9CFDF91CF9108953FB7F89480917D02E7
:1002E00090917E02A0917F02B091800226B5A89BDA
:1002F00005C02F3F19F00196A11DB11D3FBFBA2FB8
:10030000A92F982F8827BC01CD01620F711D811D77
:10031000911D42E0660F771F881F991F4A95D1F7FC
:1003200008958F929F92AF92BF92CF92DF92EF92F9
:10033000FF924B015C010E946C016B017C010E94E9
:100340006C016C197D098E099F09683E7340810517
:100350009105A8F321E0821A9108A108B10888EE5E
:10036000C80E83E0D81EE11CF11C81149104A10485
:10037000B10429F7FF90EF90DF90CF90BF90AF903E
:100380009F908F900895FC0101900020E9F731972C
:10039000AF01481B590BBC0189E892E00C945F0047
:1003A0008F929F92AF92BF920F931F93CF93DF9341
:1003B000CDB7DEB7A1970FB6F894DEBF0FBECDBFA5
:1003C00019A2423008F44AE08E010F5D1F4F842EBF
:1003D000912CB12CA12CA50194010E94D105E62FEE
:1003E000B901CA01EA30F4F4E05DD801EE938D0161
:1003F000232B242B252B79F790E080E0109719F020
:10040000CD010E94C301A1960FB6F894DEBF0FBEC6
:10041000CDBFDF91CF911F910F91BF90AF909F9073
:100420008F900895E95CE1CFCF92DF92EF92FF9237
:10043000CF93DF936B017C016DE289E892E00E942B
:10044000FF00EC0166277727CB016C197D098E0927
:100450009F094AE00E94D0018C0F9D1FDF91CF9130
:10046000FF90EF90DF90CF900895CF93DF930E949D
:10047000C301EC0186E191E00E94C3018C0F9D1F36
:10048000DF91CF910895CF93DF93EC0160918102CA
:1004900070918202072E000C880B990B97FF0BC0FE
:1004A0000E94140289E191E00E94C301CE01DF9114
:1004B000CF910C9435024AE00E94D001F3CFBC01E9
:1004C000990F880B990B97FD0C9414024AE00C9439
:1004D000D0010F931F93CF93C82F8B01809181027E
:1004E000909182020E945F028DE191E0CC23E1F0C5
:1004F0008CE291E0C130C1F08BE391E0C230A1F019
:1005000089E491E0C33081F086E591E0CF3F61F06E
:10051000C43060F087E691E00E94C3018C2F90E028
:100520000E945F0285E791E00E94C301C801CF915C
:100530001F910F910C9435021F920F920FB60F92DC
:1005400011242F933F934F935F936F937F938F93D8
:100550009F93AF93BF93EF93FF9389E892E00E943C
:10056000DD00FF91EF91BF91AF919F918F917F91AE
:100570006F915F914F913F912F910F900FBE0F9010
:100580001F9018951F920F920FB60F9211242F9360
:100590008F939F93EF93FF93E0919902F0919A02CA
:1005A0008081E0919F02F091A00282FD1BC09081AA
:1005B0008091A2028F5F8F732091A302821741F076
:1005C000E091A202F0E0E757FD4F958F8093A202E1
:1005D000FF91EF919F918F912F910F900FBE0F90F0
:1005E0001F9018958081F4CF1F920F920FB60F9233
:1005F00011242F933F938F939F93AF93BF93809139
:10060000790290917A02A0917B02B0917C023091A4
:10061000780223E0230F2D3758F50196A11DB11D57
:10062000209378028093790290937A02A0937B02C0
:10063000B0937C0280917D0290917E02A0917F0216
:10064000B09180020196A11DB11D80937D0290930F
:100650007E02A0937F02B0938002BF91AF919F91E1
:100660008F913F912F910F900FBE0F901F90189573
:1006700026E8230F0296A11DB11DD2CF789484B530
:10068000826084BD84B5816084BD85B5826085BD8E
:1006900085B5816085BD80916E00816080936E001C
:1006A000109281008091810082608093810080910E
:1006B00081008160809381008091800081608093BF
:1006C00080008091B10084608093B1008091B0007F
:1006D00081608093B00080917A00846080937A007A
:1006E00080917A00826080937A0080917A008160A4
:1006F00080937A0080917A00806880937A001092CB
:10070000C100E0919902F0919A0282E08083E09129
:100710009502F09196021082E0919702F091980272
:100720008FEC80831092A102E0919D02F0919E02D5
:1007300086E08083E0919B02F0919C028081806141
:100740008083E0919B02F0919C028081886080838D
:10075000E0919B02F0919C02808180688083E0910F
:100760009B02F0919C0280818F7D808380E4809346
:100770007C0080917A00806480937A0080917A0076
:1007800086FDFCCF8091780060917900762F682FEC
:10079000072E000C880B990B6115710581059105D9
:1007A00011F00E94960588E791E00E94350268EEFC
:1007B00073E080E090E00E94910110928802109214
:1007C0008702109286021092850210928402109283
:1007D000830288E2882E912CC2E4D0E00DE310E081
:1007E00090E6E92EF12C26E5C22ED12C3BE5A32E76
:1007F000B12C40E0642E40E0742E83E991E00E9429
:10080000430280918702909188028832910529F0F5
:100810008D329105A9F0892BA9F4809181029091E4
:100820008202019690938202809381028FE991E087
:100830000E9443029092880280928702312C02C06B
:1008400033243A9465EB71E0832D0E946902809114
:100850008502909186028D33910509F44CC078F59C
:10086000892BB1F16DEF71E0842D0E9469028091B6
:100870008302909184028B35910509F47DC008F0C4
:100880004CC0009709F453C08635910509F462C045
:100890006EE572E0852D0E94690260ED77E080E0F0
:1008A00090E00E9491016114710409F4A6CF0E94A6
:1008B000C900882309F4A1CF0E9400009ECF823492
:1008C000910531F08534910569F644244A94CACFE4
:1008D000809181029091820201969093820280938E
:1008E00081028EEC91E00E944302109386020093F5
:1008F0008502412CB7CF80918102909182020196AE
:10090000909382028093810284EE91E00E944302E0
:10091000D0938602C0938502ECCF8036910539F0E2
:100920008436910509F0B4CF55245A94B1CF809103
:1009300081029091820201969093820280938102BB
:1009400086E192E00E944302D0928402C092830228
:10095000512C9ECF809181029091820201969093BA
:100960008202809381028CE292E00E944302B09264
:100970008402A0928302ECCF809181029091820246
:100980000196909382028093810285E492E00E9416
:100990004302F0928402E0928302DACFE9E8F2E0C7
:1009A0001382128288EE93E0A0E0B0E08483958306
:1009B000A683B78388E091E09183808385EC90E003
:1009C0009587848784EC90E09787868780EC90E019
:1009D000918B808B81EC90E0938B828B82EC90E00A
:1009E000958B848B86EC90E0978B868B118E128E84
:1009F000138E148E08958F929F92AF92BF92CF92D2
:100A0000DF92EF92FF92CF93DF93EC0168817981BF
:100A10008A819B81611571058105910521F464E24C
:100A200079ED8BE597E02DE133EF41E050E00E9456
:100A30009F0549015A019B01AC01A7EAB1E40E945C
:100A4000BE056B017C01ACEEB4EFA50194010E94E0
:100A5000CC05C60ED71EE81EF91EF7FE06C081E0C3
:100A6000C81AD108E10880E8F80AC882D982EA8267
:100A7000FB82C701B6019F77DF91CF91FF90EF9086
:100A8000DF90CF90BF90AF909F908F9008958F92FE
:100A90009F92AF92BF92CF92DF92EF92FF926091BE
:100AA0000001709101018091020190910301611593
:100AB00071058105910521F464E279ED8BE597E0FC
:100AC0002DE133EF41E050E00E949F0549015A01BA
:100AD0009B01AC01A7EAB1E40E94BE056B017C0159
:100AE000ACEEB4EFA50194010E94CC05C60ED71E52
:100AF000E81EF91EF7FE06C081E0C81AD108E10819
:100B000080E8F80AC0920001D0920101E09202014F
:100B1000F0920301C701B6019F77FF90EF90DF903D
:100B2000CF90BF90AF909F908F90089560930001F9
:100B30007093010180930201909303010895052EA3
:100B400097FB1EF400940E94B60557FD07D00E9443
:100B5000D10507FC03D04EF40C94B6055095409592
:100B6000309521953F4F4F4F5F4F08959095809559
:100B7000709561957F4F8F4F9F4F08950E94F305A9
:100B8000A59F900DB49F900DA49F800D911D1124E1
:100B90000895B7FF0C94BE050E94BE05821B930BFF
:100BA0000895A1E21A2EAA1BBB1BFD010DC0AA1FAE
:100BB000BB1FEE1FFF1FA217B307E407F50720F0C6
:100BC000A21BB30BE40BF50B661F771F881F991F41
:100BD0001A9469F760957095809590959B01AC018A
:100BE000BD01CF010895A29FB001B39FC001A39F93
:100BF000700D811D1124911DB29F700D811D112456
:100C0000911D0895EE0FFF1F0590F491E02D0994BA
:040C1000F894FFCF86
:100C14000100000000000000FF005F008C004C0198
:100C2400BD009B00AF000D0A00202D2000202D20C8
:100C340050545F57414954494E472000202D2050BD
:100C4400545F5949454C4445442000202D205054BC
:100C54005F4558495445442000202D2050545F4599
:100C64004E4445442000202D2050545F46494E41B7
:100C74004C495A45442000202D2050545F4552527F
:100C84004F52202800292000446F6E65207365743C
:100C940075702C2077616974696E672031207365E3
:100CA400632E00766F6964206C6F6F702829005082
:100CB400726F746F74687265616420312072756E2E
:100CC4006E696E6700766F6964206C6F6F70282997
:100CD4003A70726F746F7468726561643100507237
:100CE4006F746F74687265616420322072756E6E01
:100CF400696E670050726F746F7468726561642006
:100D04003220636F6E74696E7565203100766F6989
:100D140064206C6F6F7028293A70726F746F7468F6
:100D240072656164320050726F746F7468726561C9
:100D34006420332072756E6E696E670050726F7432
:100D44006F746872656164203320636F6E74696EBA
:100D5400756520310050726F746F746872656164D8
:100D6400203320636F6E74696E7565203200766F70
:100D74006964206C6F6F7028293A70726F746F7495
:080D8400687265616433000030
:00000001FF
